{
  "contractName": "xWaifus",
  "abi": [
    {
      "inputs": [
        {
          "internalType": "contract xLLTH",
          "name": "_lilith",
          "type": "address"
        }
      ],
      "stateMutability": "nonpayable",
      "type": "constructor"
    },
    {
      "anonymous": false,
      "inputs": [
        {
          "indexed": true,
          "internalType": "address",
          "name": "owner",
          "type": "address"
        },
        {
          "indexed": true,
          "internalType": "address",
          "name": "approved",
          "type": "address"
        },
        {
          "indexed": true,
          "internalType": "uint256",
          "name": "tokenId",
          "type": "uint256"
        }
      ],
      "name": "Approval",
      "type": "event"
    },
    {
      "anonymous": false,
      "inputs": [
        {
          "indexed": true,
          "internalType": "address",
          "name": "owner",
          "type": "address"
        },
        {
          "indexed": true,
          "internalType": "address",
          "name": "operator",
          "type": "address"
        },
        {
          "indexed": false,
          "internalType": "bool",
          "name": "approved",
          "type": "bool"
        }
      ],
      "name": "ApprovalForAll",
      "type": "event"
    },
    {
      "anonymous": false,
      "inputs": [
        {
          "indexed": true,
          "internalType": "address",
          "name": "previousOwner",
          "type": "address"
        },
        {
          "indexed": true,
          "internalType": "address",
          "name": "newOwner",
          "type": "address"
        }
      ],
      "name": "OwnershipTransferred",
      "type": "event"
    },
    {
      "anonymous": false,
      "inputs": [
        {
          "indexed": true,
          "internalType": "address",
          "name": "from",
          "type": "address"
        },
        {
          "indexed": true,
          "internalType": "address",
          "name": "to",
          "type": "address"
        },
        {
          "indexed": true,
          "internalType": "uint256",
          "name": "tokenId",
          "type": "uint256"
        }
      ],
      "name": "Transfer",
      "type": "event"
    },
    {
      "inputs": [],
      "name": "BEGINNING_URI",
      "outputs": [
        {
          "internalType": "string",
          "name": "",
          "type": "string"
        }
      ],
      "stateMutability": "view",
      "type": "function"
    },
    {
      "inputs": [],
      "name": "ENDING_URI",
      "outputs": [
        {
          "internalType": "string",
          "name": "",
          "type": "string"
        }
      ],
      "stateMutability": "view",
      "type": "function"
    },
    {
      "inputs": [
        {
          "internalType": "address",
          "name": "to",
          "type": "address"
        },
        {
          "internalType": "uint256",
          "name": "tokenId",
          "type": "uint256"
        }
      ],
      "name": "approve",
      "outputs": [],
      "stateMutability": "nonpayable",
      "type": "function"
    },
    {
      "inputs": [
        {
          "internalType": "address",
          "name": "owner",
          "type": "address"
        }
      ],
      "name": "balanceOf",
      "outputs": [
        {
          "internalType": "uint256",
          "name": "",
          "type": "uint256"
        }
      ],
      "stateMutability": "view",
      "type": "function"
    },
    {
      "inputs": [
        {
          "internalType": "uint256",
          "name": "tokenId",
          "type": "uint256"
        }
      ],
      "name": "getApproved",
      "outputs": [
        {
          "internalType": "address",
          "name": "",
          "type": "address"
        }
      ],
      "stateMutability": "view",
      "type": "function"
    },
    {
      "inputs": [
        {
          "internalType": "address",
          "name": "owner",
          "type": "address"
        },
        {
          "internalType": "address",
          "name": "operator",
          "type": "address"
        }
      ],
      "name": "isApprovedForAll",
      "outputs": [
        {
          "internalType": "bool",
          "name": "",
          "type": "bool"
        }
      ],
      "stateMutability": "view",
      "type": "function"
    },
    {
      "inputs": [],
      "name": "lilith",
      "outputs": [
        {
          "internalType": "contract xLLTH",
          "name": "",
          "type": "address"
        }
      ],
      "stateMutability": "view",
      "type": "function"
    },
    {
      "inputs": [],
      "name": "name",
      "outputs": [
        {
          "internalType": "string",
          "name": "",
          "type": "string"
        }
      ],
      "stateMutability": "view",
      "type": "function"
    },
    {
      "inputs": [],
      "name": "owner",
      "outputs": [
        {
          "internalType": "address",
          "name": "",
          "type": "address"
        }
      ],
      "stateMutability": "view",
      "type": "function"
    },
    {
      "inputs": [
        {
          "internalType": "uint256",
          "name": "tokenId",
          "type": "uint256"
        }
      ],
      "name": "ownerOf",
      "outputs": [
        {
          "internalType": "address",
          "name": "",
          "type": "address"
        }
      ],
      "stateMutability": "view",
      "type": "function"
    },
    {
      "inputs": [],
      "name": "renounceOwnership",
      "outputs": [],
      "stateMutability": "nonpayable",
      "type": "function"
    },
    {
      "inputs": [
        {
          "internalType": "address",
          "name": "from",
          "type": "address"
        },
        {
          "internalType": "address",
          "name": "to",
          "type": "address"
        },
        {
          "internalType": "uint256",
          "name": "tokenId",
          "type": "uint256"
        }
      ],
      "name": "safeTransferFrom",
      "outputs": [],
      "stateMutability": "nonpayable",
      "type": "function"
    },
    {
      "inputs": [
        {
          "internalType": "address",
          "name": "from",
          "type": "address"
        },
        {
          "internalType": "address",
          "name": "to",
          "type": "address"
        },
        {
          "internalType": "uint256",
          "name": "tokenId",
          "type": "uint256"
        },
        {
          "internalType": "bytes",
          "name": "_data",
          "type": "bytes"
        }
      ],
      "name": "safeTransferFrom",
      "outputs": [],
      "stateMutability": "nonpayable",
      "type": "function"
    },
    {
      "inputs": [
        {
          "internalType": "address",
          "name": "operator",
          "type": "address"
        },
        {
          "internalType": "bool",
          "name": "approved",
          "type": "bool"
        }
      ],
      "name": "setApprovalForAll",
      "outputs": [],
      "stateMutability": "nonpayable",
      "type": "function"
    },
    {
      "inputs": [
        {
          "internalType": "bytes4",
          "name": "interfaceId",
          "type": "bytes4"
        }
      ],
      "name": "supportsInterface",
      "outputs": [
        {
          "internalType": "bool",
          "name": "",
          "type": "bool"
        }
      ],
      "stateMutability": "view",
      "type": "function"
    },
    {
      "inputs": [],
      "name": "symbol",
      "outputs": [
        {
          "internalType": "string",
          "name": "",
          "type": "string"
        }
      ],
      "stateMutability": "view",
      "type": "function"
    },
    {
      "inputs": [
        {
          "internalType": "uint256",
          "name": "index",
          "type": "uint256"
        }
      ],
      "name": "tokenByIndex",
      "outputs": [
        {
          "internalType": "uint256",
          "name": "",
          "type": "uint256"
        }
      ],
      "stateMutability": "view",
      "type": "function"
    },
    {
      "inputs": [
        {
          "internalType": "address",
          "name": "owner",
          "type": "address"
        },
        {
          "internalType": "uint256",
          "name": "index",
          "type": "uint256"
        }
      ],
      "name": "tokenOfOwnerByIndex",
      "outputs": [
        {
          "internalType": "uint256",
          "name": "",
          "type": "uint256"
        }
      ],
      "stateMutability": "view",
      "type": "function"
    },
    {
      "inputs": [],
      "name": "totalSupply",
      "outputs": [
        {
          "internalType": "uint256",
          "name": "",
          "type": "uint256"
        }
      ],
      "stateMutability": "view",
      "type": "function"
    },
    {
      "inputs": [
        {
          "internalType": "address",
          "name": "from",
          "type": "address"
        },
        {
          "internalType": "address",
          "name": "to",
          "type": "address"
        },
        {
          "internalType": "uint256",
          "name": "tokenId",
          "type": "uint256"
        }
      ],
      "name": "transferFrom",
      "outputs": [],
      "stateMutability": "nonpayable",
      "type": "function"
    },
    {
      "inputs": [
        {
          "internalType": "address",
          "name": "newOwner",
          "type": "address"
        }
      ],
      "name": "transferOwnership",
      "outputs": [],
      "stateMutability": "nonpayable",
      "type": "function"
    },
    {
      "inputs": [
        {
          "internalType": "uint256",
          "name": "_amount",
          "type": "uint256"
        }
      ],
      "name": "mint",
      "outputs": [],
      "stateMutability": "payable",
      "type": "function"
    },
    {
      "inputs": [
        {
          "internalType": "uint256",
          "name": "_token_id",
          "type": "uint256"
        }
      ],
      "name": "burnToken",
      "outputs": [],
      "stateMutability": "nonpayable",
      "type": "function"
    },
    {
      "inputs": [
        {
          "internalType": "uint256",
          "name": "tokenId",
          "type": "uint256"
        }
      ],
      "name": "tokenURI",
      "outputs": [
        {
          "internalType": "string",
          "name": "",
          "type": "string"
        }
      ],
      "stateMutability": "view",
      "type": "function"
    },
    {
      "inputs": [],
      "name": "withdraw",
      "outputs": [],
      "stateMutability": "nonpayable",
      "type": "function"
    },
    {
      "inputs": [
        {
          "internalType": "uint256",
          "name": "_mode",
          "type": "uint256"
        },
        {
          "internalType": "string",
          "name": "_new_uri",
          "type": "string"
        }
      ],
      "name": "setURI",
      "outputs": [],
      "stateMutability": "nonpayable",
      "type": "function"
    },
    {
      "inputs": [
        {
          "internalType": "uint256",
          "name": "_value",
          "type": "uint256"
        }
      ],
      "name": "setMintingPrice",
      "outputs": [],
      "stateMutability": "nonpayable",
      "type": "function"
    }
  ],
  "bytecode": "0x6080604052612710600b5567016345785d8a0000600c5560405180602001604052806000815250600d90805190602001906200003d9291906200026f565b5060405180602001604052806000815250600e9080519060200190620000659291906200026f565b503480156200007357600080fd5b50604051620041723803806200417283398181016040528101906200009991906200039d565b6040518060400160405280600781526020017f78576169667573000000000000000000000000000000000000000000000000008152506040518060400160405280600781526020017f785761696675730000000000000000000000000000000000000000000000000081525081600090805190602001906200011d9291906200026f565b508060019080519060200190620001369291906200026f565b505050620001596200014d620001a160201b60201c565b620001a960201b60201c565b80600f60006101000a81548173ffffffffffffffffffffffffffffffffffffffff021916908373ffffffffffffffffffffffffffffffffffffffff1602179055505062000434565b600033905090565b6000600a60009054906101000a900473ffffffffffffffffffffffffffffffffffffffff16905081600a60006101000a81548173ffffffffffffffffffffffffffffffffffffffff021916908373ffffffffffffffffffffffffffffffffffffffff1602179055508173ffffffffffffffffffffffffffffffffffffffff168173ffffffffffffffffffffffffffffffffffffffff167f8be0079c531659141344cd1fd0a4f28419497f9722a3daafe3b4186f6b6457e060405160405180910390a35050565b8280546200027d90620003fe565b90600052602060002090601f016020900481019282620002a15760008555620002ed565b82601f10620002bc57805160ff1916838001178555620002ed565b82800160010185558215620002ed579182015b82811115620002ec578251825591602001919060010190620002cf565b5b509050620002fc919062000300565b5090565b5b808211156200031b57600081600090555060010162000301565b5090565b600080fd5b600073ffffffffffffffffffffffffffffffffffffffff82169050919050565b6000620003518262000324565b9050919050565b6000620003658262000344565b9050919050565b620003778162000358565b81146200038357600080fd5b50565b60008151905062000397816200036c565b92915050565b600060208284031215620003b657620003b56200031f565b5b6000620003c68482850162000386565b91505092915050565b7f4e487b7100000000000000000000000000000000000000000000000000000000600052602260045260246000fd5b600060028204905060018216806200041757607f821691505b602082108114156200042e576200042d620003cf565b5b50919050565b613d2e80620004446000396000f3fe60806040526004361061019c5760003560e01c806370a08231116100ec57806395d89b411161008a578063b88d4fde11610064578063b88d4fde146105a5578063c87b56dd146105ce578063e985e9c51461060b578063f2fde38b146106485761019c565b806395d89b4114610535578063a0712d6814610560578063a22cb4651461057c5761019c565b80637b47ec1a116100c65780637b47ec1a1461048f5780638417b47f146104b8578063862440e2146104e15780638da5cb5b1461050a5761019c565b806370a0823114610410578063715018a61461044d57806373cd4719146104645761019c565b80632f745c59116101595780634f6ccce7116101335780634f6ccce714610340578063544015fe1461037d5780635cfdf643146103a85780636352211e146103d35761019c565b80632f745c59146102c35780633ccfd60b1461030057806342842e0e146103175761019c565b806301ffc9a7146101a157806306fdde03146101de578063081812fc14610209578063095ea7b31461024657806318160ddd1461026f57806323b872dd1461029a575b600080fd5b3480156101ad57600080fd5b506101c860048036038101906101c39190612802565b610671565b6040516101d5919061284a565b60405180910390f35b3480156101ea57600080fd5b506101f36106eb565b60405161020091906128fe565b60405180910390f35b34801561021557600080fd5b50610230600480360381019061022b9190612956565b61077d565b60405161023d91906129c4565b60405180910390f35b34801561025257600080fd5b5061026d60048036038101906102689190612a0b565b610802565b005b34801561027b57600080fd5b5061028461091a565b6040516102919190612a5a565b60405180910390f35b3480156102a657600080fd5b506102c160048036038101906102bc9190612a75565b610927565b005b3480156102cf57600080fd5b506102ea60048036038101906102e59190612a0b565b610987565b6040516102f79190612a5a565b60405180910390f35b34801561030c57600080fd5b50610315610a2c565b005b34801561032357600080fd5b5061033e60048036038101906103399190612a75565b610af1565b005b34801561034c57600080fd5b5061036760048036038101906103629190612956565b610b11565b6040516103749190612a5a565b60405180910390f35b34801561038957600080fd5b50610392610b82565b60405161039f91906128fe565b60405180910390f35b3480156103b457600080fd5b506103bd610c10565b6040516103ca91906128fe565b60405180910390f35b3480156103df57600080fd5b506103fa60048036038101906103f59190612956565b610c9e565b60405161040791906129c4565b60405180910390f35b34801561041c57600080fd5b5061043760048036038101906104329190612ac8565b610d50565b6040516104449190612a5a565b60405180910390f35b34801561045957600080fd5b50610462610e08565b005b34801561047057600080fd5b50610479610e90565b6040516104869190612b54565b60405180910390f35b34801561049b57600080fd5b506104b660048036038101906104b19190612956565b610eb6565b005b3480156104c457600080fd5b506104df60048036038101906104da9190612956565b610f38565b005b3480156104ed57600080fd5b5061050860048036038101906105039190612ca4565b610fbe565b005b34801561051657600080fd5b5061051f611085565b60405161052c91906129c4565b60405180910390f35b34801561054157600080fd5b5061054a6110af565b60405161055791906128fe565b60405180910390f35b61057a60048036038101906105759190612956565b611141565b005b34801561058857600080fd5b506105a3600480360381019061059e9190612d2c565b6111cb565b005b3480156105b157600080fd5b506105cc60048036038101906105c79190612e0d565b6111e1565b005b3480156105da57600080fd5b506105f560048036038101906105f09190612956565b611243565b60405161060291906128fe565b60405180910390f35b34801561061757600080fd5b50610632600480360381019061062d9190612e90565b61127a565b60405161063f919061284a565b60405180910390f35b34801561065457600080fd5b5061066f600480360381019061066a9190612ac8565b61130e565b005b60007f780e9d63000000000000000000000000000000000000000000000000000000007bffffffffffffffffffffffffffffffffffffffffffffffffffffffff1916827bffffffffffffffffffffffffffffffffffffffffffffffffffffffff191614806106e457506106e382611406565b5b9050919050565b6060600080546106fa90612eff565b80601f016020809104026020016040519081016040528092919081815260200182805461072690612eff565b80156107735780601f1061074857610100808354040283529160200191610773565b820191906000526020600020905b81548152906001019060200180831161075657829003601f168201915b5050505050905090565b6000610788826114e8565b6107c7576040517f08c379a00000000000000000000000000000000000000000000000000000000081526004016107be90612fa3565b60405180910390fd5b6004600083815260200190815260200160002060009054906101000a900473ffffffffffffffffffffffffffffffffffffffff169050919050565b600061080d82610c9e565b90508073ffffffffffffffffffffffffffffffffffffffff168373ffffffffffffffffffffffffffffffffffffffff16141561087e576040517f08c379a000000000000000000000000000000000000000000000000000000000815260040161087590613035565b60405180910390fd5b8073ffffffffffffffffffffffffffffffffffffffff1661089d611554565b73ffffffffffffffffffffffffffffffffffffffff1614806108cc57506108cb816108c6611554565b61127a565b5b61090b576040517f08c379a0000000000000000000000000000000000000000000000000000000008152600401610902906130c7565b60405180910390fd5b610915838361155c565b505050565b6000600880549050905090565b610938610932611554565b82611615565b610977576040517f08c379a000000000000000000000000000000000000000000000000000000000815260040161096e90613159565b60405180910390fd5b6109828383836116f3565b505050565b600061099283610d50565b82106109d3576040517f08c379a00000000000000000000000000000000000000000000000000000000081526004016109ca906131eb565b60405180910390fd5b600660008473ffffffffffffffffffffffffffffffffffffffff1673ffffffffffffffffffffffffffffffffffffffff168152602001908152602001600020600083815260200190815260200160002054905092915050565b610a34611554565b73ffffffffffffffffffffffffffffffffffffffff16610a52611085565b73ffffffffffffffffffffffffffffffffffffffff1614610aa8576040517f08c379a0000000000000000000000000000000000000000000000000000000008152600401610a9f90613257565b60405180910390fd5b3373ffffffffffffffffffffffffffffffffffffffff166108fc479081150290604051600060405180830381858888f19350505050158015610aee573d6000803e3d6000fd5b50565b610b0c838383604051806020016040528060008152506111e1565b505050565b6000610b1b61091a565b8210610b5c576040517f08c379a0000000000000000000000000000000000000000000000000000000008152600401610b53906132e9565b60405180910390fd5b60088281548110610b7057610b6f613309565b5b90600052602060002001549050919050565b600e8054610b8f90612eff565b80601f0160208091040260200160405190810160405280929190818152602001828054610bbb90612eff565b8015610c085780601f10610bdd57610100808354040283529160200191610c08565b820191906000526020600020905b815481529060010190602001808311610beb57829003601f168201915b505050505081565b600d8054610c1d90612eff565b80601f0160208091040260200160405190810160405280929190818152602001828054610c4990612eff565b8015610c965780601f10610c6b57610100808354040283529160200191610c96565b820191906000526020600020905b815481529060010190602001808311610c7957829003601f168201915b505050505081565b6000806002600084815260200190815260200160002060009054906101000a900473ffffffffffffffffffffffffffffffffffffffff169050600073ffffffffffffffffffffffffffffffffffffffff168173ffffffffffffffffffffffffffffffffffffffff161415610d47576040517f08c379a0000000000000000000000000000000000000000000000000000000008152600401610d3e906133aa565b60405180910390fd5b80915050919050565b60008073ffffffffffffffffffffffffffffffffffffffff168273ffffffffffffffffffffffffffffffffffffffff161415610dc1576040517f08c379a0000000000000000000000000000000000000000000000000000000008152600401610db89061343c565b60405180910390fd5b600360008373ffffffffffffffffffffffffffffffffffffffff1673ffffffffffffffffffffffffffffffffffffffff168152602001908152602001600020549050919050565b610e10611554565b73ffffffffffffffffffffffffffffffffffffffff16610e2e611085565b73ffffffffffffffffffffffffffffffffffffffff1614610e84576040517f08c379a0000000000000000000000000000000000000000000000000000000008152600401610e7b90613257565b60405180910390fd5b610e8e600061195a565b565b600f60009054906101000a900473ffffffffffffffffffffffffffffffffffffffff1681565b3373ffffffffffffffffffffffffffffffffffffffff16610ed682610c9e565b73ffffffffffffffffffffffffffffffffffffffff1614610f2c576040517f08c379a0000000000000000000000000000000000000000000000000000000008152600401610f23906134a8565b60405180910390fd5b610f3581611a20565b50565b610f40611554565b73ffffffffffffffffffffffffffffffffffffffff16610f5e611085565b73ffffffffffffffffffffffffffffffffffffffff1614610fb4576040517f08c379a0000000000000000000000000000000000000000000000000000000008152600401610fab90613257565b60405180910390fd5b80600c8190555050565b610fc6611554565b73ffffffffffffffffffffffffffffffffffffffff16610fe4611085565b73ffffffffffffffffffffffffffffffffffffffff161461103a576040517f08c379a000000000000000000000000000000000000000000000000000000000815260040161103190613257565b60405180910390fd5b600182141561105f5780600d90805190602001906110599291906126f3565b50611081565b60028214156110805780600e908051906020019061107e9291906126f3565b505b5b5050565b6000600a60009054906101000a900473ffffffffffffffffffffffffffffffffffffffff16905090565b6060600180546110be90612eff565b80601f01602080910402602001604051908101604052809291908181526020018280546110ea90612eff565b80156111375780601f1061110c57610100808354040283529160200191611137565b820191906000526020600020905b81548152906001019060200180831161111a57829003601f168201915b5050505050905090565b600b548161114d61091a565b61115791906134f7565b1115611198576040517f08c379a000000000000000000000000000000000000000000000000000000000815260040161118f90613599565b60405180910390fd5b60005b818110156111c7576111b4336111af61091a565b611b3d565b80806111bf906135b9565b91505061119b565b5050565b6111dd6111d6611554565b8383611b5b565b5050565b6111f26111ec611554565b83611615565b611231576040517f08c379a000000000000000000000000000000000000000000000000000000000815260040161122890613159565b60405180910390fd5b61123d84848484611cc8565b50505050565b6060600d61125083611d24565b600e604051602001611264939291906136d2565b6040516020818303038152906040529050919050565b6000600560008473ffffffffffffffffffffffffffffffffffffffff1673ffffffffffffffffffffffffffffffffffffffff16815260200190815260200160002060008373ffffffffffffffffffffffffffffffffffffffff1673ffffffffffffffffffffffffffffffffffffffff16815260200190815260200160002060009054906101000a900460ff16905092915050565b611316611554565b73ffffffffffffffffffffffffffffffffffffffff16611334611085565b73ffffffffffffffffffffffffffffffffffffffff161461138a576040517f08c379a000000000000000000000000000000000000000000000000000000000815260040161138190613257565b60405180910390fd5b600073ffffffffffffffffffffffffffffffffffffffff168173ffffffffffffffffffffffffffffffffffffffff1614156113fa576040517f08c379a00000000000000000000000000000000000000000000000000000000081526004016113f190613775565b60405180910390fd5b6114038161195a565b50565b60007f80ac58cd000000000000000000000000000000000000000000000000000000007bffffffffffffffffffffffffffffffffffffffffffffffffffffffff1916827bffffffffffffffffffffffffffffffffffffffffffffffffffffffff191614806114d157507f5b5e139f000000000000000000000000000000000000000000000000000000007bffffffffffffffffffffffffffffffffffffffffffffffffffffffff1916827bffffffffffffffffffffffffffffffffffffffffffffffffffffffff1916145b806114e157506114e082611e85565b5b9050919050565b60008073ffffffffffffffffffffffffffffffffffffffff166002600084815260200190815260200160002060009054906101000a900473ffffffffffffffffffffffffffffffffffffffff1673ffffffffffffffffffffffffffffffffffffffff1614159050919050565b600033905090565b816004600083815260200190815260200160002060006101000a81548173ffffffffffffffffffffffffffffffffffffffff021916908373ffffffffffffffffffffffffffffffffffffffff160217905550808273ffffffffffffffffffffffffffffffffffffffff166115cf83610c9e565b73ffffffffffffffffffffffffffffffffffffffff167f8c5be1e5ebec7d5bd14f71427d1e84f3dd0314c0f7b2291e5b200ac8c7c3b92560405160405180910390a45050565b6000611620826114e8565b61165f576040517f08c379a000000000000000000000000000000000000000000000000000000000815260040161165690613807565b60405180910390fd5b600061166a83610c9e565b90508073ffffffffffffffffffffffffffffffffffffffff168473ffffffffffffffffffffffffffffffffffffffff1614806116d957508373ffffffffffffffffffffffffffffffffffffffff166116c18461077d565b73ffffffffffffffffffffffffffffffffffffffff16145b806116ea57506116e9818561127a565b5b91505092915050565b8273ffffffffffffffffffffffffffffffffffffffff1661171382610c9e565b73ffffffffffffffffffffffffffffffffffffffff1614611769576040517f08c379a000000000000000000000000000000000000000000000000000000000815260040161176090613899565b60405180910390fd5b600073ffffffffffffffffffffffffffffffffffffffff168273ffffffffffffffffffffffffffffffffffffffff1614156117d9576040517f08c379a00000000000000000000000000000000000000000000000000000000081526004016117d09061392b565b60405180910390fd5b6117e4838383611eef565b6117ef60008261155c565b6001600360008573ffffffffffffffffffffffffffffffffffffffff1673ffffffffffffffffffffffffffffffffffffffff168152602001908152602001600020600082825461183f919061394b565b925050819055506001600360008473ffffffffffffffffffffffffffffffffffffffff1673ffffffffffffffffffffffffffffffffffffffff168152602001908152602001600020600082825461189691906134f7565b92505081905550816002600083815260200190815260200160002060006101000a81548173ffffffffffffffffffffffffffffffffffffffff021916908373ffffffffffffffffffffffffffffffffffffffff160217905550808273ffffffffffffffffffffffffffffffffffffffff168473ffffffffffffffffffffffffffffffffffffffff167fddf252ad1be2c89b69c2b068fc378daa952ba7f163c4a11628f55a4df523b3ef60405160405180910390a4611955838383612003565b505050565b6000600a60009054906101000a900473ffffffffffffffffffffffffffffffffffffffff16905081600a60006101000a81548173ffffffffffffffffffffffffffffffffffffffff021916908373ffffffffffffffffffffffffffffffffffffffff1602179055508173ffffffffffffffffffffffffffffffffffffffff168173ffffffffffffffffffffffffffffffffffffffff167f8be0079c531659141344cd1fd0a4f28419497f9722a3daafe3b4186f6b6457e060405160405180910390a35050565b6000611a2b82610c9e565b9050611a3981600084611eef565b611a4460008361155c565b6001600360008373ffffffffffffffffffffffffffffffffffffffff1673ffffffffffffffffffffffffffffffffffffffff1681526020019081526020016000206000828254611a94919061394b565b925050819055506002600083815260200190815260200160002060006101000a81549073ffffffffffffffffffffffffffffffffffffffff021916905581600073ffffffffffffffffffffffffffffffffffffffff168273ffffffffffffffffffffffffffffffffffffffff167fddf252ad1be2c89b69c2b068fc378daa952ba7f163c4a11628f55a4df523b3ef60405160405180910390a4611b3981600084612003565b5050565b611b57828260405180602001604052806000815250612008565b5050565b8173ffffffffffffffffffffffffffffffffffffffff168373ffffffffffffffffffffffffffffffffffffffff161415611bca576040517f08c379a0000000000000000000000000000000000000000000000000000000008152600401611bc1906139cb565b60405180910390fd5b80600560008573ffffffffffffffffffffffffffffffffffffffff1673ffffffffffffffffffffffffffffffffffffffff16815260200190815260200160002060008473ffffffffffffffffffffffffffffffffffffffff1673ffffffffffffffffffffffffffffffffffffffff16815260200190815260200160002060006101000a81548160ff0219169083151502179055508173ffffffffffffffffffffffffffffffffffffffff168373ffffffffffffffffffffffffffffffffffffffff167f17307eab39ab6107e8899845ad3d59bd9653f200f220920489ca2b5937696c3183604051611cbb919061284a565b60405180910390a3505050565b611cd38484846116f3565b611cdf84848484612063565b611d1e576040517f08c379a0000000000000000000000000000000000000000000000000000000008152600401611d1590613a5d565b60405180910390fd5b50505050565b60606000821415611d6c576040518060400160405280600181526020017f30000000000000000000000000000000000000000000000000000000000000008152509050611e80565b600082905060005b60008214611d9e578080611d87906135b9565b915050600a82611d979190613aac565b9150611d74565b60008167ffffffffffffffff811115611dba57611db9612b79565b5b6040519080825280601f01601f191660200182016040528015611dec5781602001600182028036833780820191505090505b5090505b60008514611e7957600182611e05919061394b565b9150600a85611e149190613add565b6030611e2091906134f7565b60f81b818381518110611e3657611e35613309565b5b60200101907effffffffffffffffffffffffffffffffffffffffffffffffffffffffffffff1916908160001a905350600a85611e729190613aac565b9450611df0565b8093505050505b919050565b60007f01ffc9a7000000000000000000000000000000000000000000000000000000007bffffffffffffffffffffffffffffffffffffffffffffffffffffffff1916827bffffffffffffffffffffffffffffffffffffffffffffffffffffffff1916149050919050565b611efa8383836121eb565b600073ffffffffffffffffffffffffffffffffffffffff168373ffffffffffffffffffffffffffffffffffffffff161415611f3d57611f38816121f0565b611f7c565b8173ffffffffffffffffffffffffffffffffffffffff168373ffffffffffffffffffffffffffffffffffffffff1614611f7b57611f7a8382612239565b5b5b600073ffffffffffffffffffffffffffffffffffffffff168273ffffffffffffffffffffffffffffffffffffffff161415611fbf57611fba816123a6565b611ffe565b8273ffffffffffffffffffffffffffffffffffffffff168273ffffffffffffffffffffffffffffffffffffffff1614611ffd57611ffc8282612477565b5b5b505050565b505050565b61201283836124f6565b61201f6000848484612063565b61205e576040517f08c379a000000000000000000000000000000000000000000000000000000000815260040161205590613a5d565b60405180910390fd5b505050565b60006120848473ffffffffffffffffffffffffffffffffffffffff166126d0565b156121de578373ffffffffffffffffffffffffffffffffffffffff1663150b7a026120ad611554565b8786866040518563ffffffff1660e01b81526004016120cf9493929190613b63565b6020604051808303816000875af192505050801561210b57506040513d601f19601f820116820180604052508101906121089190613bc4565b60015b61218e573d806000811461213b576040519150601f19603f3d011682016040523d82523d6000602084013e612140565b606091505b50600081511415612186576040517f08c379a000000000000000000000000000000000000000000000000000000000815260040161217d90613a5d565b60405180910390fd5b805181602001fd5b63150b7a0260e01b7bffffffffffffffffffffffffffffffffffffffffffffffffffffffff1916817bffffffffffffffffffffffffffffffffffffffffffffffffffffffff1916149150506121e3565b600190505b949350505050565b505050565b6008805490506009600083815260200190815260200160002081905550600881908060018154018082558091505060019003906000526020600020016000909190919091505550565b6000600161224684610d50565b612250919061394b565b9050600060076000848152602001908152602001600020549050818114612335576000600660008673ffffffffffffffffffffffffffffffffffffffff1673ffffffffffffffffffffffffffffffffffffffff168152602001908152602001600020600084815260200190815260200160002054905080600660008773ffffffffffffffffffffffffffffffffffffffff1673ffffffffffffffffffffffffffffffffffffffff168152602001908152602001600020600084815260200190815260200160002081905550816007600083815260200190815260200160002081905550505b6007600084815260200190815260200160002060009055600660008573ffffffffffffffffffffffffffffffffffffffff1673ffffffffffffffffffffffffffffffffffffffff16815260200190815260200160002060008381526020019081526020016000206000905550505050565b600060016008805490506123ba919061394b565b90506000600960008481526020019081526020016000205490506000600883815481106123ea576123e9613309565b5b90600052602060002001549050806008838154811061240c5761240b613309565b5b90600052602060002001819055508160096000838152602001908152602001600020819055506009600085815260200190815260200160002060009055600880548061245b5761245a613bf1565b5b6001900381819060005260206000200160009055905550505050565b600061248283610d50565b905081600660008573ffffffffffffffffffffffffffffffffffffffff1673ffffffffffffffffffffffffffffffffffffffff168152602001908152602001600020600083815260200190815260200160002081905550806007600084815260200190815260200160002081905550505050565b600073ffffffffffffffffffffffffffffffffffffffff168273ffffffffffffffffffffffffffffffffffffffff161415612566576040517f08c379a000000000000000000000000000000000000000000000000000000000815260040161255d90613c6c565b60405180910390fd5b61256f816114e8565b156125af576040517f08c379a00000000000000000000000000000000000000000000000000000000081526004016125a690613cd8565b60405180910390fd5b6125bb60008383611eef565b6001600360008473ffffffffffffffffffffffffffffffffffffffff1673ffffffffffffffffffffffffffffffffffffffff168152602001908152602001600020600082825461260b91906134f7565b92505081905550816002600083815260200190815260200160002060006101000a81548173ffffffffffffffffffffffffffffffffffffffff021916908373ffffffffffffffffffffffffffffffffffffffff160217905550808273ffffffffffffffffffffffffffffffffffffffff16600073ffffffffffffffffffffffffffffffffffffffff167fddf252ad1be2c89b69c2b068fc378daa952ba7f163c4a11628f55a4df523b3ef60405160405180910390a46126cc60008383612003565b5050565b6000808273ffffffffffffffffffffffffffffffffffffffff163b119050919050565b8280546126ff90612eff565b90600052602060002090601f0160209004810192826127215760008555612768565b82601f1061273a57805160ff1916838001178555612768565b82800160010185558215612768579182015b8281111561276757825182559160200191906001019061274c565b5b5090506127759190612779565b5090565b5b8082111561279257600081600090555060010161277a565b5090565b6000604051905090565b600080fd5b600080fd5b60007fffffffff0000000000000000000000000000000000000000000000000000000082169050919050565b6127df816127aa565b81146127ea57600080fd5b50565b6000813590506127fc816127d6565b92915050565b600060208284031215612818576128176127a0565b5b6000612826848285016127ed565b91505092915050565b60008115159050919050565b6128448161282f565b82525050565b600060208201905061285f600083018461283b565b92915050565b600081519050919050565b600082825260208201905092915050565b60005b8381101561289f578082015181840152602081019050612884565b838111156128ae576000848401525b50505050565b6000601f19601f8301169050919050565b60006128d082612865565b6128da8185612870565b93506128ea818560208601612881565b6128f3816128b4565b840191505092915050565b6000602082019050818103600083015261291881846128c5565b905092915050565b6000819050919050565b61293381612920565b811461293e57600080fd5b50565b6000813590506129508161292a565b92915050565b60006020828403121561296c5761296b6127a0565b5b600061297a84828501612941565b91505092915050565b600073ffffffffffffffffffffffffffffffffffffffff82169050919050565b60006129ae82612983565b9050919050565b6129be816129a3565b82525050565b60006020820190506129d960008301846129b5565b92915050565b6129e8816129a3565b81146129f357600080fd5b50565b600081359050612a05816129df565b92915050565b60008060408385031215612a2257612a216127a0565b5b6000612a30858286016129f6565b9250506020612a4185828601612941565b9150509250929050565b612a5481612920565b82525050565b6000602082019050612a6f6000830184612a4b565b92915050565b600080600060608486031215612a8e57612a8d6127a0565b5b6000612a9c868287016129f6565b9350506020612aad868287016129f6565b9250506040612abe86828701612941565b9150509250925092565b600060208284031215612ade57612add6127a0565b5b6000612aec848285016129f6565b91505092915050565b6000819050919050565b6000612b1a612b15612b1084612983565b612af5565b612983565b9050919050565b6000612b2c82612aff565b9050919050565b6000612b3e82612b21565b9050919050565b612b4e81612b33565b82525050565b6000602082019050612b696000830184612b45565b92915050565b600080fd5b600080fd5b7f4e487b7100000000000000000000000000000000000000000000000000000000600052604160045260246000fd5b612bb1826128b4565b810181811067ffffffffffffffff82111715612bd057612bcf612b79565b5b80604052505050565b6000612be3612796565b9050612bef8282612ba8565b919050565b600067ffffffffffffffff821115612c0f57612c0e612b79565b5b612c18826128b4565b9050602081019050919050565b82818337600083830152505050565b6000612c47612c4284612bf4565b612bd9565b905082815260208101848484011115612c6357612c62612b74565b5b612c6e848285612c25565b509392505050565b600082601f830112612c8b57612c8a612b6f565b5b8135612c9b848260208601612c34565b91505092915050565b60008060408385031215612cbb57612cba6127a0565b5b6000612cc985828601612941565b925050602083013567ffffffffffffffff811115612cea57612ce96127a5565b5b612cf685828601612c76565b9150509250929050565b612d098161282f565b8114612d1457600080fd5b50565b600081359050612d2681612d00565b92915050565b60008060408385031215612d4357612d426127a0565b5b6000612d51858286016129f6565b9250506020612d6285828601612d17565b9150509250929050565b600067ffffffffffffffff821115612d8757612d86612b79565b5b612d90826128b4565b9050602081019050919050565b6000612db0612dab84612d6c565b612bd9565b905082815260208101848484011115612dcc57612dcb612b74565b5b612dd7848285612c25565b509392505050565b600082601f830112612df457612df3612b6f565b5b8135612e04848260208601612d9d565b91505092915050565b60008060008060808587031215612e2757612e266127a0565b5b6000612e35878288016129f6565b9450506020612e46878288016129f6565b9350506040612e5787828801612941565b925050606085013567ffffffffffffffff811115612e7857612e776127a5565b5b612e8487828801612ddf565b91505092959194509250565b60008060408385031215612ea757612ea66127a0565b5b6000612eb5858286016129f6565b9250506020612ec6858286016129f6565b9150509250929050565b7f4e487b7100000000000000000000000000000000000000000000000000000000600052602260045260246000fd5b60006002820490506001821680612f1757607f821691505b60208210811415612f2b57612f2a612ed0565b5b50919050565b7f4552433732313a20617070726f76656420717565727920666f72206e6f6e657860008201527f697374656e7420746f6b656e0000000000000000000000000000000000000000602082015250565b6000612f8d602c83612870565b9150612f9882612f31565b604082019050919050565b60006020820190508181036000830152612fbc81612f80565b9050919050565b7f4552433732313a20617070726f76616c20746f2063757272656e74206f776e6560008201527f7200000000000000000000000000000000000000000000000000000000000000602082015250565b600061301f602183612870565b915061302a82612fc3565b604082019050919050565b6000602082019050818103600083015261304e81613012565b9050919050565b7f4552433732313a20617070726f76652063616c6c6572206973206e6f74206f7760008201527f6e6572206e6f7220617070726f76656420666f7220616c6c0000000000000000602082015250565b60006130b1603883612870565b91506130bc82613055565b604082019050919050565b600060208201905081810360008301526130e0816130a4565b9050919050565b7f4552433732313a207472616e736665722063616c6c6572206973206e6f74206f60008201527f776e6572206e6f7220617070726f766564000000000000000000000000000000602082015250565b6000613143603183612870565b915061314e826130e7565b604082019050919050565b6000602082019050818103600083015261317281613136565b9050919050565b7f455243373231456e756d657261626c653a206f776e657220696e646578206f7560008201527f74206f6620626f756e6473000000000000000000000000000000000000000000602082015250565b60006131d5602b83612870565b91506131e082613179565b604082019050919050565b60006020820190508181036000830152613204816131c8565b9050919050565b7f4f776e61626c653a2063616c6c6572206973206e6f7420746865206f776e6572600082015250565b6000613241602083612870565b915061324c8261320b565b602082019050919050565b6000602082019050818103600083015261327081613234565b9050919050565b7f455243373231456e756d657261626c653a20676c6f62616c20696e646578206f60008201527f7574206f6620626f756e64730000000000000000000000000000000000000000602082015250565b60006132d3602c83612870565b91506132de82613277565b604082019050919050565b60006020820190508181036000830152613302816132c6565b9050919050565b7f4e487b7100000000000000000000000000000000000000000000000000000000600052603260045260246000fd5b7f4552433732313a206f776e657220717565727920666f72206e6f6e657869737460008201527f656e7420746f6b656e0000000000000000000000000000000000000000000000602082015250565b6000613394602983612870565b915061339f82613338565b604082019050919050565b600060208201905081810360008301526133c381613387565b9050919050565b7f4552433732313a2062616c616e636520717565727920666f7220746865207a6560008201527f726f206164647265737300000000000000000000000000000000000000000000602082015250565b6000613426602a83612870565b9150613431826133ca565b604082019050919050565b6000602082019050818103600083015261345581613419565b9050919050565b7f53656e646572206973206e6f74206f776e657200000000000000000000000000600082015250565b6000613492601383612870565b915061349d8261345c565b602082019050919050565b600060208201905081810360008301526134c181613485565b9050919050565b7f4e487b7100000000000000000000000000000000000000000000000000000000600052601160045260246000fd5b600061350282612920565b915061350d83612920565b9250827fffffffffffffffffffffffffffffffffffffffffffffffffffffffffffffffff03821115613542576135416134c8565b5b828201905092915050565b7f746f74616c20737570706c792065786365656473206d617820737570706c7900600082015250565b6000613583601f83612870565b915061358e8261354d565b602082019050919050565b600060208201905081810360008301526135b281613576565b9050919050565b60006135c482612920565b91507fffffffffffffffffffffffffffffffffffffffffffffffffffffffffffffffff8214156135f7576135f66134c8565b5b600182019050919050565b600081905092915050565b60008190508160005260206000209050919050565b6000815461362f81612eff565b6136398186613602565b94506001821660008114613654576001811461366557613698565b60ff19831686528186019350613698565b61366e8561360d565b60005b8381101561369057815481890152600182019150602081019050613671565b838801955050505b50505092915050565b60006136ac82612865565b6136b68185613602565b93506136c6818560208601612881565b80840191505092915050565b60006136de8286613622565b91506136ea82856136a1565b91506136f68284613622565b9150819050949350505050565b7f4f776e61626c653a206e6577206f776e657220697320746865207a65726f206160008201527f6464726573730000000000000000000000000000000000000000000000000000602082015250565b600061375f602683612870565b915061376a82613703565b604082019050919050565b6000602082019050818103600083015261378e81613752565b9050919050565b7f4552433732313a206f70657261746f7220717565727920666f72206e6f6e657860008201527f697374656e7420746f6b656e0000000000000000000000000000000000000000602082015250565b60006137f1602c83612870565b91506137fc82613795565b604082019050919050565b60006020820190508181036000830152613820816137e4565b9050919050565b7f4552433732313a207472616e736665722066726f6d20696e636f72726563742060008201527f6f776e6572000000000000000000000000000000000000000000000000000000602082015250565b6000613883602583612870565b915061388e82613827565b604082019050919050565b600060208201905081810360008301526138b281613876565b9050919050565b7f4552433732313a207472616e7366657220746f20746865207a65726f2061646460008201527f7265737300000000000000000000000000000000000000000000000000000000602082015250565b6000613915602483612870565b9150613920826138b9565b604082019050919050565b6000602082019050818103600083015261394481613908565b9050919050565b600061395682612920565b915061396183612920565b925082821015613974576139736134c8565b5b828203905092915050565b7f4552433732313a20617070726f766520746f2063616c6c657200000000000000600082015250565b60006139b5601983612870565b91506139c08261397f565b602082019050919050565b600060208201905081810360008301526139e4816139a8565b9050919050565b7f4552433732313a207472616e7366657220746f206e6f6e20455243373231526560008201527f63656976657220696d706c656d656e7465720000000000000000000000000000602082015250565b6000613a47603283612870565b9150613a52826139eb565b604082019050919050565b60006020820190508181036000830152613a7681613a3a565b9050919050565b7f4e487b7100000000000000000000000000000000000000000000000000000000600052601260045260246000fd5b6000613ab782612920565b9150613ac283612920565b925082613ad257613ad1613a7d565b5b828204905092915050565b6000613ae882612920565b9150613af383612920565b925082613b0357613b02613a7d565b5b828206905092915050565b600081519050919050565b600082825260208201905092915050565b6000613b3582613b0e565b613b3f8185613b19565b9350613b4f818560208601612881565b613b58816128b4565b840191505092915050565b6000608082019050613b7860008301876129b5565b613b8560208301866129b5565b613b926040830185612a4b565b8181036060830152613ba48184613b2a565b905095945050505050565b600081519050613bbe816127d6565b92915050565b600060208284031215613bda57613bd96127a0565b5b6000613be884828501613baf565b91505092915050565b7f4e487b7100000000000000000000000000000000000000000000000000000000600052603160045260246000fd5b7f4552433732313a206d696e7420746f20746865207a65726f2061646472657373600082015250565b6000613c56602083612870565b9150613c6182613c20565b602082019050919050565b60006020820190508181036000830152613c8581613c49565b9050919050565b7f4552433732313a20746f6b656e20616c7265616479206d696e74656400000000600082015250565b6000613cc2601c83612870565b9150613ccd82613c8c565b602082019050919050565b60006020820190508181036000830152613cf181613cb5565b905091905056fea2646970667358221220cd389d318e49c5b5b0cea53aef8cb8562537e96d77878460164d5790ad3edce664736f6c634300080b0033",
  "immutableReferences": {},
  "source": "// SPDX-License-Identifier: MIT\r\npragma solidity ^0.8.11;\r\n\r\nimport \"@openzeppelin/contracts/token/ERC721/extensions/ERC721Enumerable.sol\";\r\nimport \"@openzeppelin/contracts/access/Ownable.sol\";\r\nimport \"@openzeppelin/contracts/utils/Strings.sol\";\r\n\r\nimport \"./mocks/xLLTH.sol\";\r\n\r\ncontract xWaifus is ERC721Enumerable, Ownable {\r\n    using Strings for uint256;\r\n\r\n    uint256 MAX_TOKENS = 10000;\r\n    uint256 PRICE = 0.1 ether;\r\n\r\n    string public BEGINNING_URI = \"\";\r\n    string public ENDING_URI = \"\";\r\n    \r\n    xLLTH public lilith;\r\n\r\n    constructor(xLLTH _lilith) ERC721(\"xWaifus\", \"xWaifus\") {\r\n        lilith = _lilith;\r\n    }\r\n\r\n    function mint(uint256 _amount) public payable {\r\n        require(\r\n            totalSupply() + _amount <= MAX_TOKENS,\r\n            \"total supply exceeds max supply\"\r\n        );\r\n\r\n        for (uint256 i = 0; i < _amount; i++) {\r\n            _safeMint(msg.sender, totalSupply());\r\n        }\r\n    }\r\n\r\n    function burnToken(uint256 _token_id) external {\r\n        require(ownerOf(_token_id) == msg.sender, \"Sender is not owner\");\r\n        _burn(_token_id);\r\n    }\r\n\r\n    function tokenURI(uint256 tokenId)\r\n        public\r\n        view\r\n        virtual\r\n        override\r\n        returns (string memory)\r\n    {\r\n        return\r\n            string(\r\n                abi.encodePacked(BEGINNING_URI, tokenId.toString(), ENDING_URI)\r\n            );\r\n    }\r\n\r\n    function withdraw() external onlyOwner {\r\n        payable(msg.sender).transfer(address(this).balance);\r\n    }\r\n\r\n    function setURI(uint256 _mode, string memory _new_uri) external onlyOwner {\r\n        if (_mode == 1) BEGINNING_URI = _new_uri;\r\n        else if (_mode == 2) ENDING_URI = _new_uri;\r\n    }\r\n\r\n    function setMintingPrice(uint256 _value) external onlyOwner {\r\n        PRICE = _value;\r\n    }\r\n}\r\n",
  "sourcePath": "/home/kaneda/projects/xwaifus-contract/contracts/Xwaifus.sol",
  "compiler": {
    "name": "solc",
    "version": "0.8.11+commit.d7f03943.Emscripten.clang"
  },
  "schemaVersion": "3.4.5",
  "updatedAt": "2022-02-25T16:27:33.851Z",
  "devdoc": {
    "kind": "dev",
    "methods": {
      "approve(address,uint256)": {
        "details": "See {IERC721-approve}."
      },
      "balanceOf(address)": {
        "details": "See {IERC721-balanceOf}."
      },
      "getApproved(uint256)": {
        "details": "See {IERC721-getApproved}."
      },
      "isApprovedForAll(address,address)": {
        "details": "See {IERC721-isApprovedForAll}."
      },
      "name()": {
        "details": "See {IERC721Metadata-name}."
      },
      "owner()": {
        "details": "Returns the address of the current owner."
      },
      "ownerOf(uint256)": {
        "details": "See {IERC721-ownerOf}."
      },
      "renounceOwnership()": {
        "details": "Leaves the contract without owner. It will not be possible to call `onlyOwner` functions anymore. Can only be called by the current owner. NOTE: Renouncing ownership will leave the contract without an owner, thereby removing any functionality that is only available to the owner."
      },
      "safeTransferFrom(address,address,uint256)": {
        "details": "See {IERC721-safeTransferFrom}."
      },
      "safeTransferFrom(address,address,uint256,bytes)": {
        "details": "See {IERC721-safeTransferFrom}."
      },
      "setApprovalForAll(address,bool)": {
        "details": "See {IERC721-setApprovalForAll}."
      },
      "supportsInterface(bytes4)": {
        "details": "See {IERC165-supportsInterface}."
      },
      "symbol()": {
        "details": "See {IERC721Metadata-symbol}."
      },
      "tokenByIndex(uint256)": {
        "details": "See {IERC721Enumerable-tokenByIndex}."
      },
      "tokenOfOwnerByIndex(address,uint256)": {
        "details": "See {IERC721Enumerable-tokenOfOwnerByIndex}."
      },
      "tokenURI(uint256)": {
        "details": "See {IERC721Metadata-tokenURI}."
      },
      "totalSupply()": {
        "details": "See {IERC721Enumerable-totalSupply}."
      },
      "transferFrom(address,address,uint256)": {
        "details": "See {IERC721-transferFrom}."
      },
      "transferOwnership(address)": {
        "details": "Transfers ownership of the contract to a new account (`newOwner`). Can only be called by the current owner."
      }
    },
    "version": 1
  },
  "userdoc": {
    "kind": "user",
    "methods": {},
    "version": 1
  }
}