{
  "contractName": "xWaifus",
  "abi": [
    {
      "inputs": [
        {
          "internalType": "contract xLLTH",
          "name": "_lilith",
          "type": "address"
        }
      ],
      "stateMutability": "nonpayable",
      "type": "constructor"
    },
    {
      "anonymous": false,
      "inputs": [
        {
          "indexed": true,
          "internalType": "address",
          "name": "owner",
          "type": "address"
        },
        {
          "indexed": true,
          "internalType": "address",
          "name": "approved",
          "type": "address"
        },
        {
          "indexed": true,
          "internalType": "uint256",
          "name": "tokenId",
          "type": "uint256"
        }
      ],
      "name": "Approval",
      "type": "event"
    },
    {
      "anonymous": false,
      "inputs": [
        {
          "indexed": true,
          "internalType": "address",
          "name": "owner",
          "type": "address"
        },
        {
          "indexed": true,
          "internalType": "address",
          "name": "operator",
          "type": "address"
        },
        {
          "indexed": false,
          "internalType": "bool",
          "name": "approved",
          "type": "bool"
        }
      ],
      "name": "ApprovalForAll",
      "type": "event"
    },
    {
      "anonymous": false,
      "inputs": [
        {
          "indexed": true,
          "internalType": "address",
          "name": "previousOwner",
          "type": "address"
        },
        {
          "indexed": true,
          "internalType": "address",
          "name": "newOwner",
          "type": "address"
        }
      ],
      "name": "OwnershipTransferred",
      "type": "event"
    },
    {
      "anonymous": false,
      "inputs": [
        {
          "indexed": true,
          "internalType": "address",
          "name": "from",
          "type": "address"
        },
        {
          "indexed": true,
          "internalType": "address",
          "name": "to",
          "type": "address"
        },
        {
          "indexed": true,
          "internalType": "uint256",
          "name": "tokenId",
          "type": "uint256"
        }
      ],
      "name": "Transfer",
      "type": "event"
    },
    {
      "inputs": [],
      "name": "BEGINNING_URI",
      "outputs": [
        {
          "internalType": "string",
          "name": "",
          "type": "string"
        }
      ],
      "stateMutability": "view",
      "type": "function"
    },
    {
      "inputs": [],
      "name": "ENDING_URI",
      "outputs": [
        {
          "internalType": "string",
          "name": "",
          "type": "string"
        }
      ],
      "stateMutability": "view",
      "type": "function"
    },
    {
      "inputs": [
        {
          "internalType": "address",
          "name": "to",
          "type": "address"
        },
        {
          "internalType": "uint256",
          "name": "tokenId",
          "type": "uint256"
        }
      ],
      "name": "approve",
      "outputs": [],
      "stateMutability": "nonpayable",
      "type": "function"
    },
    {
      "inputs": [
        {
          "internalType": "address",
          "name": "owner",
          "type": "address"
        }
      ],
      "name": "balanceOf",
      "outputs": [
        {
          "internalType": "uint256",
          "name": "",
          "type": "uint256"
        }
      ],
      "stateMutability": "view",
      "type": "function"
    },
    {
      "inputs": [
        {
          "internalType": "uint256",
          "name": "tokenId",
          "type": "uint256"
        }
      ],
      "name": "getApproved",
      "outputs": [
        {
          "internalType": "address",
          "name": "",
          "type": "address"
        }
      ],
      "stateMutability": "view",
      "type": "function"
    },
    {
      "inputs": [
        {
          "internalType": "address",
          "name": "owner",
          "type": "address"
        },
        {
          "internalType": "address",
          "name": "operator",
          "type": "address"
        }
      ],
      "name": "isApprovedForAll",
      "outputs": [
        {
          "internalType": "bool",
          "name": "",
          "type": "bool"
        }
      ],
      "stateMutability": "view",
      "type": "function"
    },
    {
      "inputs": [],
      "name": "lilith",
      "outputs": [
        {
          "internalType": "contract xLLTH",
          "name": "",
          "type": "address"
        }
      ],
      "stateMutability": "view",
      "type": "function"
    },
    {
      "inputs": [],
      "name": "name",
      "outputs": [
        {
          "internalType": "string",
          "name": "",
          "type": "string"
        }
      ],
      "stateMutability": "view",
      "type": "function"
    },
    {
      "inputs": [],
      "name": "owner",
      "outputs": [
        {
          "internalType": "address",
          "name": "",
          "type": "address"
        }
      ],
      "stateMutability": "view",
      "type": "function"
    },
    {
      "inputs": [
        {
          "internalType": "uint256",
          "name": "tokenId",
          "type": "uint256"
        }
      ],
      "name": "ownerOf",
      "outputs": [
        {
          "internalType": "address",
          "name": "",
          "type": "address"
        }
      ],
      "stateMutability": "view",
      "type": "function"
    },
    {
      "inputs": [],
      "name": "renounceOwnership",
      "outputs": [],
      "stateMutability": "nonpayable",
      "type": "function"
    },
    {
      "inputs": [
        {
          "internalType": "address",
          "name": "from",
          "type": "address"
        },
        {
          "internalType": "address",
          "name": "to",
          "type": "address"
        },
        {
          "internalType": "uint256",
          "name": "tokenId",
          "type": "uint256"
        }
      ],
      "name": "safeTransferFrom",
      "outputs": [],
      "stateMutability": "nonpayable",
      "type": "function"
    },
    {
      "inputs": [
        {
          "internalType": "address",
          "name": "from",
          "type": "address"
        },
        {
          "internalType": "address",
          "name": "to",
          "type": "address"
        },
        {
          "internalType": "uint256",
          "name": "tokenId",
          "type": "uint256"
        },
        {
          "internalType": "bytes",
          "name": "_data",
          "type": "bytes"
        }
      ],
      "name": "safeTransferFrom",
      "outputs": [],
      "stateMutability": "nonpayable",
      "type": "function"
    },
    {
      "inputs": [
        {
          "internalType": "address",
          "name": "operator",
          "type": "address"
        },
        {
          "internalType": "bool",
          "name": "approved",
          "type": "bool"
        }
      ],
      "name": "setApprovalForAll",
      "outputs": [],
      "stateMutability": "nonpayable",
      "type": "function"
    },
    {
      "inputs": [
        {
          "internalType": "bytes4",
          "name": "interfaceId",
          "type": "bytes4"
        }
      ],
      "name": "supportsInterface",
      "outputs": [
        {
          "internalType": "bool",
          "name": "",
          "type": "bool"
        }
      ],
      "stateMutability": "view",
      "type": "function"
    },
    {
      "inputs": [],
      "name": "symbol",
      "outputs": [
        {
          "internalType": "string",
          "name": "",
          "type": "string"
        }
      ],
      "stateMutability": "view",
      "type": "function"
    },
    {
      "inputs": [
        {
          "internalType": "uint256",
          "name": "index",
          "type": "uint256"
        }
      ],
      "name": "tokenByIndex",
      "outputs": [
        {
          "internalType": "uint256",
          "name": "",
          "type": "uint256"
        }
      ],
      "stateMutability": "view",
      "type": "function"
    },
    {
      "inputs": [
        {
          "internalType": "address",
          "name": "owner",
          "type": "address"
        },
        {
          "internalType": "uint256",
          "name": "index",
          "type": "uint256"
        }
      ],
      "name": "tokenOfOwnerByIndex",
      "outputs": [
        {
          "internalType": "uint256",
          "name": "",
          "type": "uint256"
        }
      ],
      "stateMutability": "view",
      "type": "function"
    },
    {
      "inputs": [],
      "name": "totalSupply",
      "outputs": [
        {
          "internalType": "uint256",
          "name": "",
          "type": "uint256"
        }
      ],
      "stateMutability": "view",
      "type": "function"
    },
    {
      "inputs": [
        {
          "internalType": "address",
          "name": "from",
          "type": "address"
        },
        {
          "internalType": "address",
          "name": "to",
          "type": "address"
        },
        {
          "internalType": "uint256",
          "name": "tokenId",
          "type": "uint256"
        }
      ],
      "name": "transferFrom",
      "outputs": [],
      "stateMutability": "nonpayable",
      "type": "function"
    },
    {
      "inputs": [
        {
          "internalType": "address",
          "name": "newOwner",
          "type": "address"
        }
      ],
      "name": "transferOwnership",
      "outputs": [],
      "stateMutability": "nonpayable",
      "type": "function"
    },
    {
      "inputs": [
        {
          "internalType": "uint8",
          "name": "_mode",
          "type": "uint8"
        },
        {
          "internalType": "uint256",
          "name": "_amount",
          "type": "uint256"
        }
      ],
      "name": "mint",
      "outputs": [],
      "stateMutability": "payable",
      "type": "function"
    },
    {
      "inputs": [
        {
          "internalType": "uint256",
          "name": "_token_id",
          "type": "uint256"
        }
      ],
      "name": "burnToken",
      "outputs": [],
      "stateMutability": "nonpayable",
      "type": "function"
    },
    {
      "inputs": [
        {
          "internalType": "uint256",
          "name": "tokenId",
          "type": "uint256"
        }
      ],
      "name": "tokenURI",
      "outputs": [
        {
          "internalType": "string",
          "name": "",
          "type": "string"
        }
      ],
      "stateMutability": "view",
      "type": "function"
    },
    {
      "inputs": [],
      "name": "withdraw",
      "outputs": [],
      "stateMutability": "nonpayable",
      "type": "function"
    },
    {
      "inputs": [
        {
          "internalType": "uint256",
          "name": "_mode",
          "type": "uint256"
        },
        {
          "internalType": "string",
          "name": "_new_uri",
          "type": "string"
        }
      ],
      "name": "setURI",
      "outputs": [],
      "stateMutability": "nonpayable",
      "type": "function"
    },
    {
      "inputs": [
        {
          "internalType": "uint8",
          "name": "_mode",
          "type": "uint8"
        },
        {
          "internalType": "uint256",
          "name": "_value",
          "type": "uint256"
        }
      ],
      "name": "setPrices",
      "outputs": [],
      "stateMutability": "nonpayable",
      "type": "function"
    },
    {
      "inputs": [
        {
          "internalType": "uint8",
          "name": "_mode",
          "type": "uint8"
        }
      ],
      "name": "toggleAllowance",
      "outputs": [],
      "stateMutability": "nonpayable",
      "type": "function"
    },
    {
      "inputs": [
        {
          "internalType": "uint8",
          "name": "_mode",
          "type": "uint8"
        },
        {
          "internalType": "uint256",
          "name": "_value",
          "type": "uint256"
        }
      ],
      "name": "changeSupply",
      "outputs": [],
      "stateMutability": "nonpayable",
      "type": "function"
    }
  ],
  "bytecode": "0x6080604052611f40600b556107d0600c5567016345785d8a0000600d5566b1a2bc2ec50000600e556000600f60006101000a81548160ff0219169083151502179055506001600f60016101000a81548160ff021916908315150217905550604051806020016040528060008152506010908051906020019062000084929190620002b6565b506040518060200160405280600081525060119080519060200190620000ac929190620002b6565b50348015620000ba57600080fd5b5060405162004838380380620048388339818101604052810190620000e09190620003e4565b6040518060400160405280600781526020017f78576169667573000000000000000000000000000000000000000000000000008152506040518060400160405280600781526020017f7857616966757300000000000000000000000000000000000000000000000000815250816000908051906020019062000164929190620002b6565b5080600190805190602001906200017d929190620002b6565b505050620001a062000194620001e860201b60201c565b620001f060201b60201c565b80601260006101000a81548173ffffffffffffffffffffffffffffffffffffffff021916908373ffffffffffffffffffffffffffffffffffffffff160217905550506200047b565b600033905090565b6000600a60009054906101000a900473ffffffffffffffffffffffffffffffffffffffff16905081600a60006101000a81548173ffffffffffffffffffffffffffffffffffffffff021916908373ffffffffffffffffffffffffffffffffffffffff1602179055508173ffffffffffffffffffffffffffffffffffffffff168173ffffffffffffffffffffffffffffffffffffffff167f8be0079c531659141344cd1fd0a4f28419497f9722a3daafe3b4186f6b6457e060405160405180910390a35050565b828054620002c49062000445565b90600052602060002090601f016020900481019282620002e8576000855562000334565b82601f106200030357805160ff191683800117855562000334565b8280016001018555821562000334579182015b828111156200033357825182559160200191906001019062000316565b5b50905062000343919062000347565b5090565b5b808211156200036257600081600090555060010162000348565b5090565b600080fd5b600073ffffffffffffffffffffffffffffffffffffffff82169050919050565b600062000398826200036b565b9050919050565b6000620003ac826200038b565b9050919050565b620003be816200039f565b8114620003ca57600080fd5b50565b600081519050620003de81620003b3565b92915050565b600060208284031215620003fd57620003fc62000366565b5b60006200040d84828501620003cd565b91505092915050565b7f4e487b7100000000000000000000000000000000000000000000000000000000600052602260045260246000fd5b600060028204905060018216806200045e57607f821691505b6020821081141562000475576200047462000416565b5b50919050565b6143ad806200048b6000396000f3fe6080604052600436106101c25760003560e01c80636352211e116100f757806395d89b4111610095578063dda8d4ba11610064578063dda8d4ba1461063e578063e985e9c514610667578063f26748e2146106a4578063f2fde38b146106c0576101c2565b806395d89b4114610584578063a22cb465146105af578063b88d4fde146105d8578063c87b56dd14610601576101c2565b806373cd4719116100d157806373cd4719146104dc5780637b47ec1a14610507578063862440e2146105305780638da5cb5b14610559576101c2565b80636352211e1461044b57806370a0823114610488578063715018a6146104c5576101c2565b80633ccfd60b116101645780634f6ccce71161013e5780634f6ccce71461038f578063544015fe146103cc5780635b7be7bb146103f75780635cfdf64314610420576101c2565b80633ccfd60b1461032657806342842e0e1461033d5780634d7a06a914610366576101c2565b8063095ea7b3116101a0578063095ea7b31461026c57806318160ddd1461029557806323b872dd146102c05780632f745c59146102e9576101c2565b806301ffc9a7146101c757806306fdde0314610204578063081812fc1461022f575b600080fd5b3480156101d357600080fd5b506101ee60048036038101906101e99190612bdf565b6106e9565b6040516101fb9190612c27565b60405180910390f35b34801561021057600080fd5b50610219610763565b6040516102269190612cdb565b60405180910390f35b34801561023b57600080fd5b5061025660048036038101906102519190612d33565b6107f5565b6040516102639190612da1565b60405180910390f35b34801561027857600080fd5b50610293600480360381019061028e9190612de8565b61087a565b005b3480156102a157600080fd5b506102aa610992565b6040516102b79190612e37565b60405180910390f35b3480156102cc57600080fd5b506102e760048036038101906102e29190612e52565b61099f565b005b3480156102f557600080fd5b50610310600480360381019061030b9190612de8565b6109ff565b60405161031d9190612e37565b60405180910390f35b34801561033257600080fd5b5061033b610aa4565b005b34801561034957600080fd5b50610364600480360381019061035f9190612e52565b610b69565b005b34801561037257600080fd5b5061038d60048036038101906103889190612ede565b610b89565b005b34801561039b57600080fd5b506103b660048036038101906103b19190612d33565b610c29565b6040516103c39190612e37565b60405180910390f35b3480156103d857600080fd5b506103e1610c9a565b6040516103ee9190612cdb565b60405180910390f35b34801561040357600080fd5b5061041e60048036038101906104199190612ede565b610d28565b005b34801561042c57600080fd5b50610435610dc8565b6040516104429190612cdb565b60405180910390f35b34801561045757600080fd5b50610472600480360381019061046d9190612d33565b610e56565b60405161047f9190612da1565b60405180910390f35b34801561049457600080fd5b506104af60048036038101906104aa9190612f1e565b610f08565b6040516104bc9190612e37565b60405180910390f35b3480156104d157600080fd5b506104da610fc0565b005b3480156104e857600080fd5b506104f1611048565b6040516104fe9190612faa565b60405180910390f35b34801561051357600080fd5b5061052e60048036038101906105299190612d33565b61106e565b005b34801561053c57600080fd5b50610557600480360381019061055291906130fa565b6110f0565b005b34801561056557600080fd5b5061056e6111ad565b60405161057b9190612da1565b60405180910390f35b34801561059057600080fd5b506105996111d7565b6040516105a69190612cdb565b60405180910390f35b3480156105bb57600080fd5b506105d660048036038101906105d19190613182565b611269565b005b3480156105e457600080fd5b506105ff60048036038101906105fa9190613263565b61127f565b005b34801561060d57600080fd5b5061062860048036038101906106239190612d33565b6112e1565b6040516106359190612cdb565b60405180910390f35b34801561064a57600080fd5b50610665600480360381019061066091906132e6565b611318565b005b34801561067357600080fd5b5061068e60048036038101906106899190613313565b6113fd565b60405161069b9190612c27565b60405180910390f35b6106be60048036038101906106b99190612ede565b611491565b005b3480156106cc57600080fd5b506106e760048036038101906106e29190612f1e565b6116eb565b005b60007f780e9d63000000000000000000000000000000000000000000000000000000007bffffffffffffffffffffffffffffffffffffffffffffffffffffffff1916827bffffffffffffffffffffffffffffffffffffffffffffffffffffffff1916148061075c575061075b826117e3565b5b9050919050565b60606000805461077290613382565b80601f016020809104026020016040519081016040528092919081815260200182805461079e90613382565b80156107eb5780601f106107c0576101008083540402835291602001916107eb565b820191906000526020600020905b8154815290600101906020018083116107ce57829003601f168201915b5050505050905090565b6000610800826118c5565b61083f576040517f08c379a000000000000000000000000000000000000000000000000000000000815260040161083690613426565b60405180910390fd5b6004600083815260200190815260200160002060009054906101000a900473ffffffffffffffffffffffffffffffffffffffff169050919050565b600061088582610e56565b90508073ffffffffffffffffffffffffffffffffffffffff168373ffffffffffffffffffffffffffffffffffffffff1614156108f6576040517f08c379a00000000000000000000000000000000000000000000000000000000081526004016108ed906134b8565b60405180910390fd5b8073ffffffffffffffffffffffffffffffffffffffff16610915611931565b73ffffffffffffffffffffffffffffffffffffffff16148061094457506109438161093e611931565b6113fd565b5b610983576040517f08c379a000000000000000000000000000000000000000000000000000000000815260040161097a9061354a565b60405180910390fd5b61098d8383611939565b505050565b6000600880549050905090565b6109b06109aa611931565b826119f2565b6109ef576040517f08c379a00000000000000000000000000000000000000000000000000000000081526004016109e6906135dc565b60405180910390fd5b6109fa838383611ad0565b505050565b6000610a0a83610f08565b8210610a4b576040517f08c379a0000000000000000000000000000000000000000000000000000000008152600401610a429061366e565b60405180910390fd5b600660008473ffffffffffffffffffffffffffffffffffffffff1673ffffffffffffffffffffffffffffffffffffffff168152602001908152602001600020600083815260200190815260200160002054905092915050565b610aac611931565b73ffffffffffffffffffffffffffffffffffffffff16610aca6111ad565b73ffffffffffffffffffffffffffffffffffffffff1614610b20576040517f08c379a0000000000000000000000000000000000000000000000000000000008152600401610b17906136da565b60405180910390fd5b3373ffffffffffffffffffffffffffffffffffffffff166108fc479081150290604051600060405180830381858888f19350505050158015610b66573d6000803e3d6000fd5b50565b610b848383836040518060200160405280600081525061127f565b505050565b610b91611931565b73ffffffffffffffffffffffffffffffffffffffff16610baf6111ad565b73ffffffffffffffffffffffffffffffffffffffff1614610c05576040517f08c379a0000000000000000000000000000000000000000000000000000000008152600401610bfc906136da565b60405180910390fd5b60018260ff161415610c1d5780600d81905550610c25565b80600e819055505b5050565b6000610c33610992565b8210610c74576040517f08c379a0000000000000000000000000000000000000000000000000000000008152600401610c6b9061376c565b60405180910390fd5b60088281548110610c8857610c8761378c565b5b90600052602060002001549050919050565b60118054610ca790613382565b80601f0160208091040260200160405190810160405280929190818152602001828054610cd390613382565b8015610d205780601f10610cf557610100808354040283529160200191610d20565b820191906000526020600020905b815481529060010190602001808311610d0357829003601f168201915b505050505081565b610d30611931565b73ffffffffffffffffffffffffffffffffffffffff16610d4e6111ad565b73ffffffffffffffffffffffffffffffffffffffff1614610da4576040517f08c379a0000000000000000000000000000000000000000000000000000000008152600401610d9b906136da565b60405180910390fd5b60018260ff161415610dbc5780600b81905550610dc4565b80600c819055505b5050565b60108054610dd590613382565b80601f0160208091040260200160405190810160405280929190818152602001828054610e0190613382565b8015610e4e5780601f10610e2357610100808354040283529160200191610e4e565b820191906000526020600020905b815481529060010190602001808311610e3157829003601f168201915b505050505081565b6000806002600084815260200190815260200160002060009054906101000a900473ffffffffffffffffffffffffffffffffffffffff169050600073ffffffffffffffffffffffffffffffffffffffff168173ffffffffffffffffffffffffffffffffffffffff161415610eff576040517f08c379a0000000000000000000000000000000000000000000000000000000008152600401610ef69061382d565b60405180910390fd5b80915050919050565b60008073ffffffffffffffffffffffffffffffffffffffff168273ffffffffffffffffffffffffffffffffffffffff161415610f79576040517f08c379a0000000000000000000000000000000000000000000000000000000008152600401610f70906138bf565b60405180910390fd5b600360008373ffffffffffffffffffffffffffffffffffffffff1673ffffffffffffffffffffffffffffffffffffffff168152602001908152602001600020549050919050565b610fc8611931565b73ffffffffffffffffffffffffffffffffffffffff16610fe66111ad565b73ffffffffffffffffffffffffffffffffffffffff161461103c576040517f08c379a0000000000000000000000000000000000000000000000000000000008152600401611033906136da565b60405180910390fd5b6110466000611d37565b565b601260009054906101000a900473ffffffffffffffffffffffffffffffffffffffff1681565b3373ffffffffffffffffffffffffffffffffffffffff1661108e82610e56565b73ffffffffffffffffffffffffffffffffffffffff16146110e4576040517f08c379a00000000000000000000000000000000000000000000000000000000081526004016110db9061392b565b60405180910390fd5b6110ed81611dfd565b50565b6110f8611931565b73ffffffffffffffffffffffffffffffffffffffff166111166111ad565b73ffffffffffffffffffffffffffffffffffffffff161461116c576040517f08c379a0000000000000000000000000000000000000000000000000000000008152600401611163906136da565b60405180910390fd5b600182141561119157806010908051906020019061118b929190612ad0565b506111a9565b80601190805190602001906111a7929190612ad0565b505b5050565b6000600a60009054906101000a900473ffffffffffffffffffffffffffffffffffffffff16905090565b6060600180546111e690613382565b80601f016020809104026020016040519081016040528092919081815260200182805461121290613382565b801561125f5780601f106112345761010080835404028352916020019161125f565b820191906000526020600020905b81548152906001019060200180831161124257829003601f168201915b5050505050905090565b61127b611274611931565b8383611f1a565b5050565b61129061128a611931565b836119f2565b6112cf576040517f08c379a00000000000000000000000000000000000000000000000000000000081526004016112c6906135dc565b60405180910390fd5b6112db84848484612087565b50505050565b606060106112ee836120e3565b601160405160200161130293929190613a1b565b6040516020818303038152906040529050919050565b611320611931565b73ffffffffffffffffffffffffffffffffffffffff1661133e6111ad565b73ffffffffffffffffffffffffffffffffffffffff1614611394576040517f08c379a000000000000000000000000000000000000000000000000000000000815260040161138b906136da565b60405180910390fd5b60018160ff1614156113cf57600f60009054906101000a900460ff1615600f60006101000a81548160ff0219169083151502179055506113fa565b600f60019054906101000a900460ff1615600f60016101000a81548160ff0219169083151502179055505b50565b6000600560008473ffffffffffffffffffffffffffffffffffffffff1673ffffffffffffffffffffffffffffffffffffffff16815260200190815260200160002060008373ffffffffffffffffffffffffffffffffffffffff1673ffffffffffffffffffffffffffffffffffffffff16815260200190815260200160002060009054906101000a900460ff16905092915050565b60018260ff1614156115a557600f60009054906101000a900460ff1680156114c55750600f60019054906101000a900460ff165b611504576040517f08c379a00000000000000000000000000000000000000000000000000000000081526004016114fb90613abe565b60405180910390fd5b600d54341015611549576040517f08c379a000000000000000000000000000000000000000000000000000000000815260040161154090613b2a565b60405180910390fd5b600b5481611555610992565b61155f9190613b79565b11156115a0576040517f08c379a000000000000000000000000000000000000000000000000000000000815260040161159790613c1b565b60405180910390fd5b6116b7565b60028260ff1614156116b657600f60009054906101000a900460ff1680156115da5750600f60019054906101000a900460ff16155b611619576040517f08c379a000000000000000000000000000000000000000000000000000000000815260040161161090613cad565b60405180910390fd5b600e5434101561165e576040517f08c379a000000000000000000000000000000000000000000000000000000000815260040161165590613b2a565b60405180910390fd5b600c548161166a610992565b6116749190613b79565b11156116b5576040517f08c379a00000000000000000000000000000000000000000000000000000000081526004016116ac90613d19565b60405180910390fd5b5b5b60005b818110156116e6576116d3336116ce610992565b612244565b80806116de90613d39565b9150506116ba565b505050565b6116f3611931565b73ffffffffffffffffffffffffffffffffffffffff166117116111ad565b73ffffffffffffffffffffffffffffffffffffffff1614611767576040517f08c379a000000000000000000000000000000000000000000000000000000000815260040161175e906136da565b60405180910390fd5b600073ffffffffffffffffffffffffffffffffffffffff168173ffffffffffffffffffffffffffffffffffffffff1614156117d7576040517f08c379a00000000000000000000000000000000000000000000000000000000081526004016117ce90613df4565b60405180910390fd5b6117e081611d37565b50565b60007f80ac58cd000000000000000000000000000000000000000000000000000000007bffffffffffffffffffffffffffffffffffffffffffffffffffffffff1916827bffffffffffffffffffffffffffffffffffffffffffffffffffffffff191614806118ae57507f5b5e139f000000000000000000000000000000000000000000000000000000007bffffffffffffffffffffffffffffffffffffffffffffffffffffffff1916827bffffffffffffffffffffffffffffffffffffffffffffffffffffffff1916145b806118be57506118bd82612262565b5b9050919050565b60008073ffffffffffffffffffffffffffffffffffffffff166002600084815260200190815260200160002060009054906101000a900473ffffffffffffffffffffffffffffffffffffffff1673ffffffffffffffffffffffffffffffffffffffff1614159050919050565b600033905090565b816004600083815260200190815260200160002060006101000a81548173ffffffffffffffffffffffffffffffffffffffff021916908373ffffffffffffffffffffffffffffffffffffffff160217905550808273ffffffffffffffffffffffffffffffffffffffff166119ac83610e56565b73ffffffffffffffffffffffffffffffffffffffff167f8c5be1e5ebec7d5bd14f71427d1e84f3dd0314c0f7b2291e5b200ac8c7c3b92560405160405180910390a45050565b60006119fd826118c5565b611a3c576040517f08c379a0000000000000000000000000000000000000000000000000000000008152600401611a3390613e86565b60405180910390fd5b6000611a4783610e56565b90508073ffffffffffffffffffffffffffffffffffffffff168473ffffffffffffffffffffffffffffffffffffffff161480611ab657508373ffffffffffffffffffffffffffffffffffffffff16611a9e846107f5565b73ffffffffffffffffffffffffffffffffffffffff16145b80611ac75750611ac681856113fd565b5b91505092915050565b8273ffffffffffffffffffffffffffffffffffffffff16611af082610e56565b73ffffffffffffffffffffffffffffffffffffffff1614611b46576040517f08c379a0000000000000000000000000000000000000000000000000000000008152600401611b3d90613f18565b60405180910390fd5b600073ffffffffffffffffffffffffffffffffffffffff168273ffffffffffffffffffffffffffffffffffffffff161415611bb6576040517f08c379a0000000000000000000000000000000000000000000000000000000008152600401611bad90613faa565b60405180910390fd5b611bc18383836122cc565b611bcc600082611939565b6001600360008573ffffffffffffffffffffffffffffffffffffffff1673ffffffffffffffffffffffffffffffffffffffff1681526020019081526020016000206000828254611c1c9190613fca565b925050819055506001600360008473ffffffffffffffffffffffffffffffffffffffff1673ffffffffffffffffffffffffffffffffffffffff1681526020019081526020016000206000828254611c739190613b79565b92505081905550816002600083815260200190815260200160002060006101000a81548173ffffffffffffffffffffffffffffffffffffffff021916908373ffffffffffffffffffffffffffffffffffffffff160217905550808273ffffffffffffffffffffffffffffffffffffffff168473ffffffffffffffffffffffffffffffffffffffff167fddf252ad1be2c89b69c2b068fc378daa952ba7f163c4a11628f55a4df523b3ef60405160405180910390a4611d328383836123e0565b505050565b6000600a60009054906101000a900473ffffffffffffffffffffffffffffffffffffffff16905081600a60006101000a81548173ffffffffffffffffffffffffffffffffffffffff021916908373ffffffffffffffffffffffffffffffffffffffff1602179055508173ffffffffffffffffffffffffffffffffffffffff168173ffffffffffffffffffffffffffffffffffffffff167f8be0079c531659141344cd1fd0a4f28419497f9722a3daafe3b4186f6b6457e060405160405180910390a35050565b6000611e0882610e56565b9050611e16816000846122cc565b611e21600083611939565b6001600360008373ffffffffffffffffffffffffffffffffffffffff1673ffffffffffffffffffffffffffffffffffffffff1681526020019081526020016000206000828254611e719190613fca565b925050819055506002600083815260200190815260200160002060006101000a81549073ffffffffffffffffffffffffffffffffffffffff021916905581600073ffffffffffffffffffffffffffffffffffffffff168273ffffffffffffffffffffffffffffffffffffffff167fddf252ad1be2c89b69c2b068fc378daa952ba7f163c4a11628f55a4df523b3ef60405160405180910390a4611f16816000846123e0565b5050565b8173ffffffffffffffffffffffffffffffffffffffff168373ffffffffffffffffffffffffffffffffffffffff161415611f89576040517f08c379a0000000000000000000000000000000000000000000000000000000008152600401611f809061404a565b60405180910390fd5b80600560008573ffffffffffffffffffffffffffffffffffffffff1673ffffffffffffffffffffffffffffffffffffffff16815260200190815260200160002060008473ffffffffffffffffffffffffffffffffffffffff1673ffffffffffffffffffffffffffffffffffffffff16815260200190815260200160002060006101000a81548160ff0219169083151502179055508173ffffffffffffffffffffffffffffffffffffffff168373ffffffffffffffffffffffffffffffffffffffff167f17307eab39ab6107e8899845ad3d59bd9653f200f220920489ca2b5937696c318360405161207a9190612c27565b60405180910390a3505050565b612092848484611ad0565b61209e848484846123e5565b6120dd576040517f08c379a00000000000000000000000000000000000000000000000000000000081526004016120d4906140dc565b60405180910390fd5b50505050565b6060600082141561212b576040518060400160405280600181526020017f3000000000000000000000000000000000000000000000000000000000000000815250905061223f565b600082905060005b6000821461215d57808061214690613d39565b915050600a82612156919061412b565b9150612133565b60008167ffffffffffffffff81111561217957612178612fcf565b5b6040519080825280601f01601f1916602001820160405280156121ab5781602001600182028036833780820191505090505b5090505b60008514612238576001826121c49190613fca565b9150600a856121d3919061415c565b60306121df9190613b79565b60f81b8183815181106121f5576121f461378c565b5b60200101907effffffffffffffffffffffffffffffffffffffffffffffffffffffffffffff1916908160001a905350600a85612231919061412b565b94506121af565b8093505050505b919050565b61225e82826040518060200160405280600081525061256d565b5050565b60007f01ffc9a7000000000000000000000000000000000000000000000000000000007bffffffffffffffffffffffffffffffffffffffffffffffffffffffff1916827bffffffffffffffffffffffffffffffffffffffffffffffffffffffff1916149050919050565b6122d78383836125c8565b600073ffffffffffffffffffffffffffffffffffffffff168373ffffffffffffffffffffffffffffffffffffffff16141561231a57612315816125cd565b612359565b8173ffffffffffffffffffffffffffffffffffffffff168373ffffffffffffffffffffffffffffffffffffffff1614612358576123578382612616565b5b5b600073ffffffffffffffffffffffffffffffffffffffff168273ffffffffffffffffffffffffffffffffffffffff16141561239c5761239781612783565b6123db565b8273ffffffffffffffffffffffffffffffffffffffff168273ffffffffffffffffffffffffffffffffffffffff16146123da576123d98282612854565b5b5b505050565b505050565b60006124068473ffffffffffffffffffffffffffffffffffffffff166128d3565b15612560578373ffffffffffffffffffffffffffffffffffffffff1663150b7a0261242f611931565b8786866040518563ffffffff1660e01b815260040161245194939291906141e2565b6020604051808303816000875af192505050801561248d57506040513d601f19601f8201168201806040525081019061248a9190614243565b60015b612510573d80600081146124bd576040519150601f19603f3d011682016040523d82523d6000602084013e6124c2565b606091505b50600081511415612508576040517f08c379a00000000000000000000000000000000000000000000000000000000081526004016124ff906140dc565b60405180910390fd5b805181602001fd5b63150b7a0260e01b7bffffffffffffffffffffffffffffffffffffffffffffffffffffffff1916817bffffffffffffffffffffffffffffffffffffffffffffffffffffffff191614915050612565565b600190505b949350505050565b61257783836128f6565b61258460008484846123e5565b6125c3576040517f08c379a00000000000000000000000000000000000000000000000000000000081526004016125ba906140dc565b60405180910390fd5b505050565b505050565b6008805490506009600083815260200190815260200160002081905550600881908060018154018082558091505060019003906000526020600020016000909190919091505550565b6000600161262384610f08565b61262d9190613fca565b9050600060076000848152602001908152602001600020549050818114612712576000600660008673ffffffffffffffffffffffffffffffffffffffff1673ffffffffffffffffffffffffffffffffffffffff168152602001908152602001600020600084815260200190815260200160002054905080600660008773ffffffffffffffffffffffffffffffffffffffff1673ffffffffffffffffffffffffffffffffffffffff168152602001908152602001600020600084815260200190815260200160002081905550816007600083815260200190815260200160002081905550505b6007600084815260200190815260200160002060009055600660008573ffffffffffffffffffffffffffffffffffffffff1673ffffffffffffffffffffffffffffffffffffffff16815260200190815260200160002060008381526020019081526020016000206000905550505050565b600060016008805490506127979190613fca565b90506000600960008481526020019081526020016000205490506000600883815481106127c7576127c661378c565b5b9060005260206000200154905080600883815481106127e9576127e861378c565b5b90600052602060002001819055508160096000838152602001908152602001600020819055506009600085815260200190815260200160002060009055600880548061283857612837614270565b5b6001900381819060005260206000200160009055905550505050565b600061285f83610f08565b905081600660008573ffffffffffffffffffffffffffffffffffffffff1673ffffffffffffffffffffffffffffffffffffffff168152602001908152602001600020600083815260200190815260200160002081905550806007600084815260200190815260200160002081905550505050565b6000808273ffffffffffffffffffffffffffffffffffffffff163b119050919050565b600073ffffffffffffffffffffffffffffffffffffffff168273ffffffffffffffffffffffffffffffffffffffff161415612966576040517f08c379a000000000000000000000000000000000000000000000000000000000815260040161295d906142eb565b60405180910390fd5b61296f816118c5565b156129af576040517f08c379a00000000000000000000000000000000000000000000000000000000081526004016129a690614357565b60405180910390fd5b6129bb600083836122cc565b6001600360008473ffffffffffffffffffffffffffffffffffffffff1673ffffffffffffffffffffffffffffffffffffffff1681526020019081526020016000206000828254612a0b9190613b79565b92505081905550816002600083815260200190815260200160002060006101000a81548173ffffffffffffffffffffffffffffffffffffffff021916908373ffffffffffffffffffffffffffffffffffffffff160217905550808273ffffffffffffffffffffffffffffffffffffffff16600073ffffffffffffffffffffffffffffffffffffffff167fddf252ad1be2c89b69c2b068fc378daa952ba7f163c4a11628f55a4df523b3ef60405160405180910390a4612acc600083836123e0565b5050565b828054612adc90613382565b90600052602060002090601f016020900481019282612afe5760008555612b45565b82601f10612b1757805160ff1916838001178555612b45565b82800160010185558215612b45579182015b82811115612b44578251825591602001919060010190612b29565b5b509050612b529190612b56565b5090565b5b80821115612b6f576000816000905550600101612b57565b5090565b6000604051905090565b600080fd5b600080fd5b60007fffffffff0000000000000000000000000000000000000000000000000000000082169050919050565b612bbc81612b87565b8114612bc757600080fd5b50565b600081359050612bd981612bb3565b92915050565b600060208284031215612bf557612bf4612b7d565b5b6000612c0384828501612bca565b91505092915050565b60008115159050919050565b612c2181612c0c565b82525050565b6000602082019050612c3c6000830184612c18565b92915050565b600081519050919050565b600082825260208201905092915050565b60005b83811015612c7c578082015181840152602081019050612c61565b83811115612c8b576000848401525b50505050565b6000601f19601f8301169050919050565b6000612cad82612c42565b612cb78185612c4d565b9350612cc7818560208601612c5e565b612cd081612c91565b840191505092915050565b60006020820190508181036000830152612cf58184612ca2565b905092915050565b6000819050919050565b612d1081612cfd565b8114612d1b57600080fd5b50565b600081359050612d2d81612d07565b92915050565b600060208284031215612d4957612d48612b7d565b5b6000612d5784828501612d1e565b91505092915050565b600073ffffffffffffffffffffffffffffffffffffffff82169050919050565b6000612d8b82612d60565b9050919050565b612d9b81612d80565b82525050565b6000602082019050612db66000830184612d92565b92915050565b612dc581612d80565b8114612dd057600080fd5b50565b600081359050612de281612dbc565b92915050565b60008060408385031215612dff57612dfe612b7d565b5b6000612e0d85828601612dd3565b9250506020612e1e85828601612d1e565b9150509250929050565b612e3181612cfd565b82525050565b6000602082019050612e4c6000830184612e28565b92915050565b600080600060608486031215612e6b57612e6a612b7d565b5b6000612e7986828701612dd3565b9350506020612e8a86828701612dd3565b9250506040612e9b86828701612d1e565b9150509250925092565b600060ff82169050919050565b612ebb81612ea5565b8114612ec657600080fd5b50565b600081359050612ed881612eb2565b92915050565b60008060408385031215612ef557612ef4612b7d565b5b6000612f0385828601612ec9565b9250506020612f1485828601612d1e565b9150509250929050565b600060208284031215612f3457612f33612b7d565b5b6000612f4284828501612dd3565b91505092915050565b6000819050919050565b6000612f70612f6b612f6684612d60565b612f4b565b612d60565b9050919050565b6000612f8282612f55565b9050919050565b6000612f9482612f77565b9050919050565b612fa481612f89565b82525050565b6000602082019050612fbf6000830184612f9b565b92915050565b600080fd5b600080fd5b7f4e487b7100000000000000000000000000000000000000000000000000000000600052604160045260246000fd5b61300782612c91565b810181811067ffffffffffffffff8211171561302657613025612fcf565b5b80604052505050565b6000613039612b73565b90506130458282612ffe565b919050565b600067ffffffffffffffff82111561306557613064612fcf565b5b61306e82612c91565b9050602081019050919050565b82818337600083830152505050565b600061309d6130988461304a565b61302f565b9050828152602081018484840111156130b9576130b8612fca565b5b6130c484828561307b565b509392505050565b600082601f8301126130e1576130e0612fc5565b5b81356130f184826020860161308a565b91505092915050565b6000806040838503121561311157613110612b7d565b5b600061311f85828601612d1e565b925050602083013567ffffffffffffffff8111156131405761313f612b82565b5b61314c858286016130cc565b9150509250929050565b61315f81612c0c565b811461316a57600080fd5b50565b60008135905061317c81613156565b92915050565b6000806040838503121561319957613198612b7d565b5b60006131a785828601612dd3565b92505060206131b88582860161316d565b9150509250929050565b600067ffffffffffffffff8211156131dd576131dc612fcf565b5b6131e682612c91565b9050602081019050919050565b6000613206613201846131c2565b61302f565b90508281526020810184848401111561322257613221612fca565b5b61322d84828561307b565b509392505050565b600082601f83011261324a57613249612fc5565b5b813561325a8482602086016131f3565b91505092915050565b6000806000806080858703121561327d5761327c612b7d565b5b600061328b87828801612dd3565b945050602061329c87828801612dd3565b93505060406132ad87828801612d1e565b925050606085013567ffffffffffffffff8111156132ce576132cd612b82565b5b6132da87828801613235565b91505092959194509250565b6000602082840312156132fc576132fb612b7d565b5b600061330a84828501612ec9565b91505092915050565b6000806040838503121561332a57613329612b7d565b5b600061333885828601612dd3565b925050602061334985828601612dd3565b9150509250929050565b7f4e487b7100000000000000000000000000000000000000000000000000000000600052602260045260246000fd5b6000600282049050600182168061339a57607f821691505b602082108114156133ae576133ad613353565b5b50919050565b7f4552433732313a20617070726f76656420717565727920666f72206e6f6e657860008201527f697374656e7420746f6b656e0000000000000000000000000000000000000000602082015250565b6000613410602c83612c4d565b915061341b826133b4565b604082019050919050565b6000602082019050818103600083015261343f81613403565b9050919050565b7f4552433732313a20617070726f76616c20746f2063757272656e74206f776e6560008201527f7200000000000000000000000000000000000000000000000000000000000000602082015250565b60006134a2602183612c4d565b91506134ad82613446565b604082019050919050565b600060208201905081810360008301526134d181613495565b9050919050565b7f4552433732313a20617070726f76652063616c6c6572206973206e6f74206f7760008201527f6e6572206e6f7220617070726f76656420666f7220616c6c0000000000000000602082015250565b6000613534603883612c4d565b915061353f826134d8565b604082019050919050565b6000602082019050818103600083015261356381613527565b9050919050565b7f4552433732313a207472616e736665722063616c6c6572206973206e6f74206f60008201527f776e6572206e6f7220617070726f766564000000000000000000000000000000602082015250565b60006135c6603183612c4d565b91506135d18261356a565b604082019050919050565b600060208201905081810360008301526135f5816135b9565b9050919050565b7f455243373231456e756d657261626c653a206f776e657220696e646578206f7560008201527f74206f6620626f756e6473000000000000000000000000000000000000000000602082015250565b6000613658602b83612c4d565b9150613663826135fc565b604082019050919050565b600060208201905081810360008301526136878161364b565b9050919050565b7f4f776e61626c653a2063616c6c6572206973206e6f7420746865206f776e6572600082015250565b60006136c4602083612c4d565b91506136cf8261368e565b602082019050919050565b600060208201905081810360008301526136f3816136b7565b9050919050565b7f455243373231456e756d657261626c653a20676c6f62616c20696e646578206f60008201527f7574206f6620626f756e64730000000000000000000000000000000000000000602082015250565b6000613756602c83612c4d565b9150613761826136fa565b604082019050919050565b6000602082019050818103600083015261378581613749565b9050919050565b7f4e487b7100000000000000000000000000000000000000000000000000000000600052603260045260246000fd5b7f4552433732313a206f776e657220717565727920666f72206e6f6e657869737460008201527f656e7420746f6b656e0000000000000000000000000000000000000000000000602082015250565b6000613817602983612c4d565b9150613822826137bb565b604082019050919050565b600060208201905081810360008301526138468161380a565b9050919050565b7f4552433732313a2062616c616e636520717565727920666f7220746865207a6560008201527f726f206164647265737300000000000000000000000000000000000000000000602082015250565b60006138a9602a83612c4d565b91506138b48261384d565b604082019050919050565b600060208201905081810360008301526138d88161389c565b9050919050565b7f53656e646572206973206e6f74206f776e657200000000000000000000000000600082015250565b6000613915601383612c4d565b9150613920826138df565b602082019050919050565b6000602082019050818103600083015261394481613908565b9050919050565b600081905092915050565b60008190508160005260206000209050919050565b6000815461397881613382565b613982818661394b565b9450600182166000811461399d57600181146139ae576139e1565b60ff198316865281860193506139e1565b6139b785613956565b60005b838110156139d9578154818901526001820191506020810190506139ba565b838801955050505b50505092915050565b60006139f582612c42565b6139ff818561394b565b9350613a0f818560208601612c5e565b80840191505092915050565b6000613a27828661396b565b9150613a3382856139ea565b9150613a3f828461396b565b9150819050949350505050565b7f456974686572206d696e74696e67206f722070726573616c652069736e27742060008201527f616c6c6f77656400000000000000000000000000000000000000000000000000602082015250565b6000613aa8602783612c4d565b9150613ab382613a4c565b604082019050919050565b60006020820190508181036000830152613ad781613a9b565b9050919050565b7f4665652069736e27742070616964000000000000000000000000000000000000600082015250565b6000613b14600e83612c4d565b9150613b1f82613ade565b602082019050919050565b60006020820190508181036000830152613b4381613b07565b9050919050565b7f4e487b7100000000000000000000000000000000000000000000000000000000600052601160045260246000fd5b6000613b8482612cfd565b9150613b8f83612cfd565b9250827fffffffffffffffffffffffffffffffffffffffffffffffffffffffffffffffff03821115613bc457613bc3613b4a565b5b828201905092915050565b7f546f74616c20737570706c792065786365656473206d617820737570706c7900600082015250565b6000613c05601f83612c4d565b9150613c1082613bcf565b602082019050919050565b60006020820190508181036000830152613c3481613bf8565b9050919050565b7f456974686572206d696e74696e67206f72207075626c69632073616c6520697360008201527f6e277420616c6c6f776564000000000000000000000000000000000000000000602082015250565b6000613c97602b83612c4d565b9150613ca282613c3b565b604082019050919050565b60006020820190508181036000830152613cc681613c8a565b9050919050565b7f546f74616c20537570706c792065786365656473206d617820737570706c7900600082015250565b6000613d03601f83612c4d565b9150613d0e82613ccd565b602082019050919050565b60006020820190508181036000830152613d3281613cf6565b9050919050565b6000613d4482612cfd565b91507fffffffffffffffffffffffffffffffffffffffffffffffffffffffffffffffff821415613d7757613d76613b4a565b5b600182019050919050565b7f4f776e61626c653a206e6577206f776e657220697320746865207a65726f206160008201527f6464726573730000000000000000000000000000000000000000000000000000602082015250565b6000613dde602683612c4d565b9150613de982613d82565b604082019050919050565b60006020820190508181036000830152613e0d81613dd1565b9050919050565b7f4552433732313a206f70657261746f7220717565727920666f72206e6f6e657860008201527f697374656e7420746f6b656e0000000000000000000000000000000000000000602082015250565b6000613e70602c83612c4d565b9150613e7b82613e14565b604082019050919050565b60006020820190508181036000830152613e9f81613e63565b9050919050565b7f4552433732313a207472616e736665722066726f6d20696e636f72726563742060008201527f6f776e6572000000000000000000000000000000000000000000000000000000602082015250565b6000613f02602583612c4d565b9150613f0d82613ea6565b604082019050919050565b60006020820190508181036000830152613f3181613ef5565b9050919050565b7f4552433732313a207472616e7366657220746f20746865207a65726f2061646460008201527f7265737300000000000000000000000000000000000000000000000000000000602082015250565b6000613f94602483612c4d565b9150613f9f82613f38565b604082019050919050565b60006020820190508181036000830152613fc381613f87565b9050919050565b6000613fd582612cfd565b9150613fe083612cfd565b925082821015613ff357613ff2613b4a565b5b828203905092915050565b7f4552433732313a20617070726f766520746f2063616c6c657200000000000000600082015250565b6000614034601983612c4d565b915061403f82613ffe565b602082019050919050565b6000602082019050818103600083015261406381614027565b9050919050565b7f4552433732313a207472616e7366657220746f206e6f6e20455243373231526560008201527f63656976657220696d706c656d656e7465720000000000000000000000000000602082015250565b60006140c6603283612c4d565b91506140d18261406a565b604082019050919050565b600060208201905081810360008301526140f5816140b9565b9050919050565b7f4e487b7100000000000000000000000000000000000000000000000000000000600052601260045260246000fd5b600061413682612cfd565b915061414183612cfd565b925082614151576141506140fc565b5b828204905092915050565b600061416782612cfd565b915061417283612cfd565b925082614182576141816140fc565b5b828206905092915050565b600081519050919050565b600082825260208201905092915050565b60006141b48261418d565b6141be8185614198565b93506141ce818560208601612c5e565b6141d781612c91565b840191505092915050565b60006080820190506141f76000830187612d92565b6142046020830186612d92565b6142116040830185612e28565b818103606083015261422381846141a9565b905095945050505050565b60008151905061423d81612bb3565b92915050565b60006020828403121561425957614258612b7d565b5b60006142678482850161422e565b91505092915050565b7f4e487b7100000000000000000000000000000000000000000000000000000000600052603160045260246000fd5b7f4552433732313a206d696e7420746f20746865207a65726f2061646472657373600082015250565b60006142d5602083612c4d565b91506142e08261429f565b602082019050919050565b60006020820190508181036000830152614304816142c8565b9050919050565b7f4552433732313a20746f6b656e20616c7265616479206d696e74656400000000600082015250565b6000614341601c83612c4d565b915061434c8261430b565b602082019050919050565b6000602082019050818103600083015261437081614334565b905091905056fea264697066735822122012c4a27b421b573072131b58dcec975ffaa23f4e9901f83f9f8f9e087a93d3fb64736f6c634300080b0033",
  "immutableReferences": {},
  "source": "// SPDX-License-Identifier: MIT\r\npragma solidity ^0.8.11;\r\n\r\nimport \"@openzeppelin/contracts/token/ERC721/extensions/ERC721Enumerable.sol\";\r\nimport \"@openzeppelin/contracts/access/Ownable.sol\";\r\nimport \"@openzeppelin/contracts/utils/Strings.sol\";\r\n\r\nimport \"./mocks/xLLTH.sol\";\r\n\r\ncontract xWaifus is ERC721Enumerable, Ownable {\r\n    using Strings for uint256;\r\n\r\n    uint256 PUBLIC_SALE_SUPPLY = 8000;\r\n    uint256 PRESALE_SUPPLY = 2000;\r\n\r\n    uint256 PUBLIC_SALE_PRICE = 0.1 ether;\r\n    uint256 PRESALE_PRICE = 0.05 ether;\r\n\r\n    bool MINTING_ALLOWED = false;\r\n    bool PRESALE_ALLOWED = true;\r\n\r\n    string public BEGINNING_URI = \"\";\r\n    string public ENDING_URI = \"\";\r\n    \r\n    xLLTH public lilith;\r\n\r\n    constructor(xLLTH _lilith) ERC721(\"xWaifus\", \"xWaifus\") {\r\n        lilith = _lilith;\r\n    }\r\n\r\n    function mint(uint8 _mode, uint256 _amount) public payable {\r\n        if (_mode == 1) {\r\n            require(MINTING_ALLOWED && PRESALE_ALLOWED, \"Either minting or presale isn't allowed\");\r\n            require(msg.value >= PUBLIC_SALE_PRICE, \"Fee isn't paid\");\r\n            require(\r\n                totalSupply() + _amount <= PUBLIC_SALE_SUPPLY,\r\n                \"Total supply exceeds max supply\"\r\n            );\r\n        }\r\n\r\n        else if (_mode == 2) {\r\n            require(MINTING_ALLOWED && !PRESALE_ALLOWED, \"Either minting or public sale isn't allowed\");\r\n            require(msg.value >= PRESALE_PRICE, \"Fee isn't paid\");\r\n            require(\r\n                totalSupply() + _amount <= PRESALE_SUPPLY,\r\n                \"Total Supply exceeds max supply\"\r\n            );\r\n        }\r\n\r\n        for (uint256 i = 0; i < _amount; i++) {\r\n            _safeMint(msg.sender, totalSupply());\r\n        }\r\n    }\r\n\r\n    function burnToken(uint256 _token_id) external {\r\n        require(ownerOf(_token_id) == msg.sender, \"Sender is not owner\");\r\n        _burn(_token_id);\r\n    }\r\n\r\n    function tokenURI(uint256 tokenId)\r\n        public\r\n        view\r\n        virtual\r\n        override\r\n        returns (string memory)\r\n    {\r\n        return\r\n            string(\r\n                abi.encodePacked(BEGINNING_URI, tokenId.toString(), ENDING_URI)\r\n            );\r\n    }\r\n\r\n    function withdraw() public onlyOwner {\r\n        payable(msg.sender).transfer(address(this).balance);\r\n    }\r\n\r\n    function setURI(uint256 _mode, string memory _new_uri) public onlyOwner {\r\n        if (_mode == 1) BEGINNING_URI = _new_uri;\r\n        else ENDING_URI = _new_uri;\r\n    }\r\n\r\n    function setPrices(uint8 _mode, uint256 _value) public onlyOwner {\r\n        if (_mode == 1) PUBLIC_SALE_PRICE = _value;\r\n        else PRESALE_PRICE = _value;\r\n    }\r\n\r\n    function toggleAllowance(uint8 _mode) public onlyOwner {\r\n        if (_mode == 1) MINTING_ALLOWED = !MINTING_ALLOWED;\r\n        else PRESALE_ALLOWED = !PRESALE_ALLOWED;\r\n    }\r\n\r\n\r\n    function changeSupply(uint8 _mode, uint256 _value) public onlyOwner {\r\n        if (_mode == 1) PUBLIC_SALE_SUPPLY = _value;\r\n        else PRESALE_SUPPLY = _value;\r\n    }\r\n}\r\n",
  "sourcePath": "/home/kaneda/projects/xwaifus-contract/contracts/Xwaifus.sol",
  "compiler": {
    "name": "solc",
    "version": "0.8.11+commit.d7f03943.Emscripten.clang"
  },
  "schemaVersion": "3.4.5",
  "updatedAt": "2022-03-19T11:56:51.426Z",
  "devdoc": {
    "kind": "dev",
    "methods": {
      "approve(address,uint256)": {
        "details": "See {IERC721-approve}."
      },
      "balanceOf(address)": {
        "details": "See {IERC721-balanceOf}."
      },
      "getApproved(uint256)": {
        "details": "See {IERC721-getApproved}."
      },
      "isApprovedForAll(address,address)": {
        "details": "See {IERC721-isApprovedForAll}."
      },
      "name()": {
        "details": "See {IERC721Metadata-name}."
      },
      "owner()": {
        "details": "Returns the address of the current owner."
      },
      "ownerOf(uint256)": {
        "details": "See {IERC721-ownerOf}."
      },
      "renounceOwnership()": {
        "details": "Leaves the contract without owner. It will not be possible to call `onlyOwner` functions anymore. Can only be called by the current owner. NOTE: Renouncing ownership will leave the contract without an owner, thereby removing any functionality that is only available to the owner."
      },
      "safeTransferFrom(address,address,uint256)": {
        "details": "See {IERC721-safeTransferFrom}."
      },
      "safeTransferFrom(address,address,uint256,bytes)": {
        "details": "See {IERC721-safeTransferFrom}."
      },
      "setApprovalForAll(address,bool)": {
        "details": "See {IERC721-setApprovalForAll}."
      },
      "supportsInterface(bytes4)": {
        "details": "See {IERC165-supportsInterface}."
      },
      "symbol()": {
        "details": "See {IERC721Metadata-symbol}."
      },
      "tokenByIndex(uint256)": {
        "details": "See {IERC721Enumerable-tokenByIndex}."
      },
      "tokenOfOwnerByIndex(address,uint256)": {
        "details": "See {IERC721Enumerable-tokenOfOwnerByIndex}."
      },
      "tokenURI(uint256)": {
        "details": "See {IERC721Metadata-tokenURI}."
      },
      "totalSupply()": {
        "details": "See {IERC721Enumerable-totalSupply}."
      },
      "transferFrom(address,address,uint256)": {
        "details": "See {IERC721-transferFrom}."
      },
      "transferOwnership(address)": {
        "details": "Transfers ownership of the contract to a new account (`newOwner`). Can only be called by the current owner."
      }
    },
    "version": 1
  },
  "userdoc": {
    "kind": "user",
    "methods": {},
    "version": 1
  }
}